{
	"contracts/TP2_.sol": {
		"KipuBank": {
			"abi": [
				{
					"inputs": [
						{
							"internalType": "uint256",
							"name": "_limiteBanco",
							"type": "uint256"
						},
						{
							"internalType": "uint256",
							"name": "_topeRetiroPorTx",
							"type": "uint256"
						}
					],
					"stateMutability": "nonpayable",
					"type": "constructor"
				},
				{
					"inputs": [
						{
							"internalType": "uint256",
							"name": "solicitado",
							"type": "uint256"
						},
						{
							"internalType": "uint256",
							"name": "disponible",
							"type": "uint256"
						}
					],
					"name": "BalanceInsuficiente",
					"type": "error"
				},
				{
					"inputs": [],
					"name": "MontoCero",
					"type": "error"
				},
				{
					"inputs": [
						{
							"internalType": "uint256",
							"name": "solicitado",
							"type": "uint256"
						},
						{
							"internalType": "uint256",
							"name": "tope",
							"type": "uint256"
						}
					],
					"name": "RetiroSobreTope",
					"type": "error"
				},
				{
					"inputs": [
						{
							"internalType": "uint256",
							"name": "totalIntentado",
							"type": "uint256"
						},
						{
							"internalType": "uint256",
							"name": "limite",
							"type": "uint256"
						}
					],
					"name": "TopeBancoExcedido",
					"type": "error"
				},
				{
					"inputs": [
						{
							"internalType": "address",
							"name": "a",
							"type": "address"
						},
						{
							"internalType": "uint256",
							"name": "monto",
							"type": "uint256"
						}
					],
					"name": "TransferenciaNativaFallida",
					"type": "error"
				},
				{
					"anonymous": false,
					"inputs": [
						{
							"indexed": true,
							"internalType": "address",
							"name": "usuario",
							"type": "address"
						},
						{
							"indexed": false,
							"internalType": "uint256",
							"name": "monto",
							"type": "uint256"
						},
						{
							"indexed": false,
							"internalType": "uint256",
							"name": "balanceUsuario",
							"type": "uint256"
						}
					],
					"name": "Depositado",
					"type": "event"
				},
				{
					"anonymous": false,
					"inputs": [
						{
							"indexed": true,
							"internalType": "address",
							"name": "usuario",
							"type": "address"
						},
						{
							"indexed": false,
							"internalType": "uint256",
							"name": "monto",
							"type": "uint256"
						},
						{
							"indexed": false,
							"internalType": "uint256",
							"name": "balanceUsuario",
							"type": "uint256"
						}
					],
					"name": "Retirado",
					"type": "event"
				},
				{
					"stateMutability": "payable",
					"type": "fallback"
				},
				{
					"inputs": [
						{
							"internalType": "address",
							"name": "",
							"type": "address"
						}
					],
					"name": "boveda",
					"outputs": [
						{
							"internalType": "uint256",
							"name": "",
							"type": "uint256"
						}
					],
					"stateMutability": "view",
					"type": "function"
				},
				{
					"inputs": [],
					"name": "conteoDepositos",
					"outputs": [
						{
							"internalType": "uint256",
							"name": "",
							"type": "uint256"
						}
					],
					"stateMutability": "view",
					"type": "function"
				},
				{
					"inputs": [],
					"name": "conteoRetiros",
					"outputs": [
						{
							"internalType": "uint256",
							"name": "",
							"type": "uint256"
						}
					],
					"stateMutability": "view",
					"type": "function"
				},
				{
					"inputs": [],
					"name": "depositar",
					"outputs": [],
					"stateMutability": "payable",
					"type": "function"
				},
				{
					"inputs": [],
					"name": "estadisticas",
					"outputs": [
						{
							"internalType": "uint256",
							"name": "_saldoBancoTotal",
							"type": "uint256"
						},
						{
							"internalType": "uint256",
							"name": "_conteoDepositos",
							"type": "uint256"
						},
						{
							"internalType": "uint256",
							"name": "_conteoRetiros",
							"type": "uint256"
						}
					],
					"stateMutability": "view",
					"type": "function"
				},
				{
					"inputs": [],
					"name": "limiteBanco",
					"outputs": [
						{
							"internalType": "uint256",
							"name": "",
							"type": "uint256"
						}
					],
					"stateMutability": "view",
					"type": "function"
				},
				{
					"inputs": [
						{
							"internalType": "uint256",
							"name": "monto",
							"type": "uint256"
						}
					],
					"name": "retirar",
					"outputs": [],
					"stateMutability": "nonpayable",
					"type": "function"
				},
				{
					"inputs": [],
					"name": "saldoBancoTotal",
					"outputs": [
						{
							"internalType": "uint256",
							"name": "",
							"type": "uint256"
						}
					],
					"stateMutability": "view",
					"type": "function"
				},
				{
					"inputs": [
						{
							"internalType": "address",
							"name": "usuario",
							"type": "address"
						}
					],
					"name": "saldoDe",
					"outputs": [
						{
							"internalType": "uint256",
							"name": "",
							"type": "uint256"
						}
					],
					"stateMutability": "view",
					"type": "function"
				},
				{
					"inputs": [],
					"name": "topeRetiroPorTx",
					"outputs": [
						{
							"internalType": "uint256",
							"name": "",
							"type": "uint256"
						}
					],
					"stateMutability": "view",
					"type": "function"
				},
				{
					"stateMutability": "payable",
					"type": "receive"
				}
			],
			"devdoc": {
				"author": "YAIN RUPPEL -TalentoTECH",
				"details": "CEI = Checks-Effects-Interactions. Las transferencias nativas usan `call`.",
				"errors": {
					"BalanceInsuficiente(uint256,uint256)": [
						{
							"params": {
								"disponible": "Balance disponible en su bóveda.",
								"solicitado": "Monto solicitado por el usuario."
							}
						}
					],
					"RetiroSobreTope(uint256,uint256)": [
						{
							"params": {
								"solicitado": "Monto solicitado por el usuario.",
								"tope": "Límite máximo permitido por transacción."
							}
						}
					],
					"TopeBancoExcedido(uint256,uint256)": [
						{
							"params": {
								"limite": "Límite global configurado.",
								"totalIntentado": "Nuevo total que se intentó alcanzar."
							}
						}
					],
					"TransferenciaNativaFallida(address,uint256)": [
						{
							"params": {
								"a": "Destinatario.",
								"monto": "Monto intentado."
							}
						}
					]
				},
				"events": {
					"Depositado(address,uint256,uint256)": {
						"params": {
							"balanceUsuario": "Nuevo balance del usuario.",
							"monto": "Monto depositado (wei).",
							"usuario": "Dirección del depositante."
						}
					},
					"Retirado(address,uint256,uint256)": {
						"params": {
							"balanceUsuario": "Nuevo balance del usuario.",
							"monto": "Monto retirado (wei).",
							"usuario": "Dirección del retirante."
						}
					}
				},
				"kind": "dev",
				"methods": {
					"constructor": {
						"params": {
							"_limiteBanco": "Límite global de depósitos (wei).",
							"_topeRetiroPorTx": "Tope por retiro (wei)."
						}
					},
					"depositar()": {
						"details": "CEI:  - Checks: valida límites (monto > 0 y límite global).  - Effects: actualiza estado (mapping/contadores).  - Interactions: no hay llamadas externas aquí."
					},
					"estadisticas()": {
						"returns": {
							"_conteoDepositos": "Cantidad de depósitos.",
							"_conteoRetiros": "Cantidad de retiros.",
							"_saldoBancoTotal": "Suma de todos los balances."
						}
					},
					"retirar(uint256)": {
						"details": "CEI: validaciones → actualizar estado → transferir al final.",
						"params": {
							"monto": "Monto a retirar (wei)."
						}
					},
					"saldoDe(address)": {
						"params": {
							"usuario": "Dirección a consultar."
						}
					}
				},
				"stateVariables": {
					"limiteBanco": {
						"details": "Inmutable: se fija en el constructor."
					},
					"topeRetiroPorTx": {
						"details": "Inmutable: se fija en el constructor."
					}
				},
				"title": "KIPU-BANK",
				"version": 1
			},
			"evm": {
				"assembly": "    /* \"contracts/TP2_.sol\":453:8441  contract KipuBank {... */\n  mstore(0x40, 0xc0)\n    /* \"contracts/TP2_.sol\":4284:4626  constructor(uint256 _limiteBanco, uint256 _topeRetiroPorTx) {... */\n  callvalue\n  dup1\n  iszero\n  tag_1\n  jumpi\n  revert(0x00, 0x00)\ntag_1:\n  pop\n  mload(0x40)\n  sub(codesize, bytecodeSize)\n  dup1\n  bytecodeSize\n  dup4\n  codecopy\n  dup2\n  dup2\n  add\n  0x40\n  mstore\n  dup2\n  add\n  swap1\n  tag_2\n  swap2\n  swap1\n  tag_3\n  jump\t// in\ntag_2:\n    /* \"contracts/TP2_.sol\":4437:4438  0 */\n  0x00\n    /* \"contracts/TP2_.sol\":4421:4433  _limiteBanco */\n  dup3\n    /* \"contracts/TP2_.sol\":4421:4438  _limiteBanco == 0 */\n  sub\n    /* \"contracts/TP2_.sol\":4417:4470  if (_limiteBanco == 0) revert TopeBancoExcedido(0, 0) */\n  tag_6\n  jumpi\n    /* \"contracts/TP2_.sol\":4465:4466  0 */\n  0x00\n    /* \"contracts/TP2_.sol\":4468:4469  0 */\n  0x00\n    /* \"contracts/TP2_.sol\":4447:4470  TopeBancoExcedido(0, 0) */\n  mload(0x40)\n  0x0868d0f300000000000000000000000000000000000000000000000000000000\n  dup2\n  mstore\n  0x04\n  add\n  tag_7\n  swap3\n  swap2\n  swap1\n  tag_8\n  jump\t// in\ntag_7:\n  mload(0x40)\n  dup1\n  swap2\n  sub\n  swap1\n  revert\n    /* \"contracts/TP2_.sol\":4417:4470  if (_limiteBanco == 0) revert TopeBancoExcedido(0, 0) */\ntag_6:\n    /* \"contracts/TP2_.sol\":4505:4506  0 */\n  0x00\n    /* \"contracts/TP2_.sol\":4485:4501  _topeRetiroPorTx */\n  dup2\n    /* \"contracts/TP2_.sol\":4485:4506  _topeRetiroPorTx == 0 */\n  sub\n    /* \"contracts/TP2_.sol\":4481:4536  if (_topeRetiroPorTx == 0) revert RetiroSobreTope(0, 0) */\n  tag_9\n  jumpi\n    /* \"contracts/TP2_.sol\":4531:4532  0 */\n  0x00\n    /* \"contracts/TP2_.sol\":4534:4535  0 */\n  0x00\n    /* \"contracts/TP2_.sol\":4515:4536  RetiroSobreTope(0, 0) */\n  mload(0x40)\n  0xe910694600000000000000000000000000000000000000000000000000000000\n  dup2\n  mstore\n  0x04\n  add\n  tag_10\n  swap3\n  swap2\n  swap1\n  tag_8\n  jump\t// in\ntag_10:\n  mload(0x40)\n  dup1\n  swap2\n  sub\n  swap1\n  revert\n    /* \"contracts/TP2_.sol\":4481:4536  if (_topeRetiroPorTx == 0) revert RetiroSobreTope(0, 0) */\ntag_9:\n    /* \"contracts/TP2_.sol\":4561:4573  _limiteBanco */\n  dup2\n    /* \"contracts/TP2_.sol\":4547:4573  limiteBanco = _limiteBanco */\n  0x80\n  dup2\n  dup2\n  mstore\n  pop\n  pop\n    /* \"contracts/TP2_.sol\":4602:4618  _topeRetiroPorTx */\n  dup1\n    /* \"contracts/TP2_.sol\":4584:4618  topeRetiroPorTx = _topeRetiroPorTx */\n  0xa0\n  dup2\n  dup2\n  mstore\n  pop\n  pop\n    /* \"contracts/TP2_.sol\":4284:4626  constructor(uint256 _limiteBanco, uint256 _topeRetiroPorTx) {... */\n  pop\n  pop\n    /* \"contracts/TP2_.sol\":453:8441  contract KipuBank {... */\n  jump(tag_11)\n    /* \"#utility.yul\":88:205   */\ntag_13:\n    /* \"#utility.yul\":197:198   */\n  0x00\n    /* \"#utility.yul\":194:195   */\n  0x00\n    /* \"#utility.yul\":187:199   */\n  revert\n    /* \"#utility.yul\":334:411   */\ntag_15:\n    /* \"#utility.yul\":371:378   */\n  0x00\n    /* \"#utility.yul\":400:405   */\n  dup2\n    /* \"#utility.yul\":389:405   */\n  swap1\n  pop\n    /* \"#utility.yul\":334:411   */\n  swap2\n  swap1\n  pop\n  jump\t// out\n    /* \"#utility.yul\":417:539   */\ntag_16:\n    /* \"#utility.yul\":490:514   */\n  tag_28\n    /* \"#utility.yul\":508:513   */\n  dup2\n    /* \"#utility.yul\":490:514   */\n  tag_15\n  jump\t// in\ntag_28:\n    /* \"#utility.yul\":483:488   */\n  dup2\n    /* \"#utility.yul\":480:515   */\n  eq\n    /* \"#utility.yul\":470:533   */\n  tag_29\n  jumpi\n    /* \"#utility.yul\":529:530   */\n  0x00\n    /* \"#utility.yul\":526:527   */\n  0x00\n    /* \"#utility.yul\":519:531   */\n  revert\n    /* \"#utility.yul\":470:533   */\ntag_29:\n    /* \"#utility.yul\":417:539   */\n  pop\n  jump\t// out\n    /* \"#utility.yul\":545:688   */\ntag_17:\n    /* \"#utility.yul\":602:607   */\n  0x00\n    /* \"#utility.yul\":633:639   */\n  dup2\n    /* \"#utility.yul\":627:640   */\n  mload\n    /* \"#utility.yul\":618:640   */\n  swap1\n  pop\n    /* \"#utility.yul\":649:682   */\n  tag_31\n    /* \"#utility.yul\":676:681   */\n  dup2\n    /* \"#utility.yul\":649:682   */\n  tag_16\n  jump\t// in\ntag_31:\n    /* \"#utility.yul\":545:688   */\n  swap3\n  swap2\n  pop\n  pop\n  jump\t// out\n    /* \"#utility.yul\":694:1201   */\ntag_3:\n    /* \"#utility.yul\":773:779   */\n  0x00\n    /* \"#utility.yul\":781:787   */\n  0x00\n    /* \"#utility.yul\":830:832   */\n  0x40\n    /* \"#utility.yul\":818:827   */\n  dup4\n    /* \"#utility.yul\":809:816   */\n  dup6\n    /* \"#utility.yul\":805:828   */\n  sub\n    /* \"#utility.yul\":801:833   */\n  slt\n    /* \"#utility.yul\":798:917   */\n  iszero\n  tag_33\n  jumpi\n    /* \"#utility.yul\":836:915   */\n  tag_34\n  tag_13\n  jump\t// in\ntag_34:\n    /* \"#utility.yul\":798:917   */\ntag_33:\n    /* \"#utility.yul\":956:957   */\n  0x00\n    /* \"#utility.yul\":981:1045   */\n  tag_35\n    /* \"#utility.yul\":1037:1044   */\n  dup6\n    /* \"#utility.yul\":1028:1034   */\n  dup3\n    /* \"#utility.yul\":1017:1026   */\n  dup7\n    /* \"#utility.yul\":1013:1035   */\n  add\n    /* \"#utility.yul\":981:1045   */\n  tag_17\n  jump\t// in\ntag_35:\n    /* \"#utility.yul\":971:1045   */\n  swap3\n  pop\n    /* \"#utility.yul\":927:1055   */\n  pop\n    /* \"#utility.yul\":1094:1096   */\n  0x20\n    /* \"#utility.yul\":1120:1184   */\n  tag_36\n    /* \"#utility.yul\":1176:1183   */\n  dup6\n    /* \"#utility.yul\":1167:1173   */\n  dup3\n    /* \"#utility.yul\":1156:1165   */\n  dup7\n    /* \"#utility.yul\":1152:1174   */\n  add\n    /* \"#utility.yul\":1120:1184   */\n  tag_17\n  jump\t// in\ntag_36:\n    /* \"#utility.yul\":1110:1184   */\n  swap2\n  pop\n    /* \"#utility.yul\":1065:1194   */\n  pop\n    /* \"#utility.yul\":694:1201   */\n  swap3\n  pop\n  swap3\n  swap1\n  pop\n  jump\t// out\n    /* \"#utility.yul\":1207:1292   */\ntag_18:\n    /* \"#utility.yul\":1252:1259   */\n  0x00\n    /* \"#utility.yul\":1281:1286   */\n  dup2\n    /* \"#utility.yul\":1270:1286   */\n  swap1\n  pop\n    /* \"#utility.yul\":1207:1292   */\n  swap2\n  swap1\n  pop\n  jump\t// out\n    /* \"#utility.yul\":1298:1358   */\ntag_19:\n    /* \"#utility.yul\":1326:1329   */\n  0x00\n    /* \"#utility.yul\":1347:1352   */\n  dup2\n    /* \"#utility.yul\":1340:1352   */\n  swap1\n  pop\n    /* \"#utility.yul\":1298:1358   */\n  swap2\n  swap1\n  pop\n  jump\t// out\n    /* \"#utility.yul\":1364:1522   */\ntag_20:\n    /* \"#utility.yul\":1422:1431   */\n  0x00\n    /* \"#utility.yul\":1455:1516   */\n  tag_40\n    /* \"#utility.yul\":1473:1515   */\n  tag_41\n    /* \"#utility.yul\":1482:1514   */\n  tag_42\n    /* \"#utility.yul\":1508:1513   */\n  dup5\n    /* \"#utility.yul\":1482:1514   */\n  tag_18\n  jump\t// in\ntag_42:\n    /* \"#utility.yul\":1473:1515   */\n  tag_19\n  jump\t// in\ntag_41:\n    /* \"#utility.yul\":1455:1516   */\n  tag_15\n  jump\t// in\ntag_40:\n    /* \"#utility.yul\":1442:1516   */\n  swap1\n  pop\n    /* \"#utility.yul\":1364:1522   */\n  swap2\n  swap1\n  pop\n  jump\t// out\n    /* \"#utility.yul\":1528:1675   */\ntag_21:\n    /* \"#utility.yul\":1623:1668   */\n  tag_44\n    /* \"#utility.yul\":1662:1667   */\n  dup2\n    /* \"#utility.yul\":1623:1668   */\n  tag_20\n  jump\t// in\ntag_44:\n    /* \"#utility.yul\":1618:1621   */\n  dup3\n    /* \"#utility.yul\":1611:1669   */\n  mstore\n    /* \"#utility.yul\":1528:1675   */\n  pop\n  pop\n  jump\t// out\n    /* \"#utility.yul\":1681:2045   */\ntag_8:\n    /* \"#utility.yul\":1818:1822   */\n  0x00\n    /* \"#utility.yul\":1856:1858   */\n  0x40\n    /* \"#utility.yul\":1845:1854   */\n  dup3\n    /* \"#utility.yul\":1841:1859   */\n  add\n    /* \"#utility.yul\":1833:1859   */\n  swap1\n  pop\n    /* \"#utility.yul\":1869:1948   */\n  tag_46\n    /* \"#utility.yul\":1945:1946   */\n  0x00\n    /* \"#utility.yul\":1934:1943   */\n  dup4\n    /* \"#utility.yul\":1930:1947   */\n  add\n    /* \"#utility.yul\":1921:1927   */\n  dup6\n    /* \"#utility.yul\":1869:1948   */\n  tag_21\n  jump\t// in\ntag_46:\n    /* \"#utility.yul\":1958:2038   */\n  tag_47\n    /* \"#utility.yul\":2034:2036   */\n  0x20\n    /* \"#utility.yul\":2023:2032   */\n  dup4\n    /* \"#utility.yul\":2019:2037   */\n  add\n    /* \"#utility.yul\":2010:2016   */\n  dup5\n    /* \"#utility.yul\":1958:2038   */\n  tag_21\n  jump\t// in\ntag_47:\n    /* \"#utility.yul\":1681:2045   */\n  swap4\n  swap3\n  pop\n  pop\n  pop\n  jump\t// out\n    /* \"contracts/TP2_.sol\":453:8441  contract KipuBank {... */\ntag_11:\n  mload(0x80)\n  mload(0xa0)\n  codecopy(0x00, dataOffset(sub_0), dataSize(sub_0))\n  0x00\n  assignImmutable(\"0xe921da22f871c25c63f06c1365385cbb26397f64f79055cdbab32187a9377d16\")\n  0x00\n  assignImmutable(\"0x6b3e710f3089a74ecb6b0f5948e5ff07a3db6ba4da475d2be17624ba96b95b\")\n  return(0x00, dataSize(sub_0))\nstop\n\nsub_0: assembly {\n        /* \"contracts/TP2_.sol\":453:8441  contract KipuBank {... */\n      mstore(0x40, 0x80)\n      jumpi(tag_1, lt(calldatasize, 0x04))\n      shr(0xe0, calldataload(0x00))\n      dup1\n      0x6baf38ca\n      gt\n      tag_13\n      jumpi\n      dup1\n      0x6baf38ca\n      eq\n      tag_8\n      jumpi\n      dup1\n      0xa9cb0ca0\n      eq\n      tag_9\n      jumpi\n      dup1\n      0xc8ddec1b\n      eq\n      tag_10\n      jumpi\n      dup1\n      0xe8b1298f\n      eq\n      tag_11\n      jumpi\n      dup1\n      0xfee88b61\n      eq\n      tag_12\n      jumpi\n      jump(tag_2)\n    tag_13:\n      dup1\n      0x15a68416\n      eq\n      tag_3\n      jumpi\n      dup1\n      0x3d922f90\n      eq\n      tag_4\n      jumpi\n      dup1\n      0x47572014\n      eq\n      tag_5\n      jumpi\n      dup1\n      0x499bbada\n      eq\n      tag_6\n      jumpi\n      dup1\n      0x566fea9d\n      eq\n      tag_7\n      jumpi\n      jump(tag_2)\n    tag_1:\n    tag_2:\n        /* \"contracts/TP2_.sol\":8422:8430  revert() */\n      revert(0x00, 0x00)\n        /* \"contracts/TP2_.sol\":2989:3029  uint256 public immutable topeRetiroPorTx */\n    tag_3:\n      callvalue\n      dup1\n      iszero\n      tag_18\n      jumpi\n      revert(0x00, 0x00)\n    tag_18:\n      pop\n      tag_19\n      tag_20\n      jump\t// in\n    tag_19:\n      mload(0x40)\n      tag_21\n      swap2\n      swap1\n      tag_22\n      jump\t// in\n    tag_21:\n      mload(0x40)\n      dup1\n      swap2\n      sub\n      swap1\n      return\n        /* \"contracts/TP2_.sol\":5096:5641  function depositar() external payable noCero(msg.value) {... */\n    tag_4:\n      tag_23\n      tag_24\n      jump\t// in\n    tag_23:\n      stop\n        /* \"contracts/TP2_.sol\":3329:3359  uint256 public saldoBancoTotal */\n    tag_5:\n      callvalue\n      dup1\n      iszero\n      tag_25\n      jumpi\n      revert(0x00, 0x00)\n    tag_25:\n      pop\n      tag_26\n      tag_27\n      jump\t// in\n    tag_26:\n      mload(0x40)\n      tag_28\n      swap2\n      swap1\n      tag_22\n      jump\t// in\n    tag_28:\n      mload(0x40)\n      dup1\n      swap2\n      sub\n      swap1\n      return\n        /* \"contracts/TP2_.sol\":3212:3240  uint256 public conteoRetiros */\n    tag_6:\n      callvalue\n      dup1\n      iszero\n      tag_29\n      jumpi\n      revert(0x00, 0x00)\n    tag_29:\n      pop\n      tag_30\n      tag_31\n      jump\t// in\n    tag_30:\n      mload(0x40)\n      tag_32\n      swap2\n      swap1\n      tag_22\n      jump\t// in\n    tag_32:\n      mload(0x40)\n      dup1\n      swap2\n      sub\n      swap1\n      return\n        /* \"contracts/TP2_.sol\":7182:7412  function estadisticas()... */\n    tag_7:\n      callvalue\n      dup1\n      iszero\n      tag_33\n      jumpi\n      revert(0x00, 0x00)\n    tag_33:\n      pop\n      tag_34\n      tag_35\n      jump\t// in\n    tag_34:\n      mload(0x40)\n      tag_36\n      swap4\n      swap3\n      swap2\n      swap1\n      tag_37\n      jump\t// in\n    tag_36:\n      mload(0x40)\n      dup1\n      swap2\n      sub\n      swap1\n      return\n        /* \"contracts/TP2_.sol\":6845:6952  function saldoDe(address usuario) external view returns (uint256) {... */\n    tag_8:\n      callvalue\n      dup1\n      iszero\n      tag_38\n      jumpi\n      revert(0x00, 0x00)\n    tag_38:\n      pop\n      tag_39\n      0x04\n      dup1\n      calldatasize\n      sub\n      dup2\n      add\n      swap1\n      tag_40\n      swap2\n      swap1\n      tag_41\n      jump\t// in\n    tag_40:\n      tag_42\n      jump\t// in\n    tag_39:\n      mload(0x40)\n      tag_43\n      swap2\n      swap1\n      tag_22\n      jump\t// in\n    tag_43:\n      mload(0x40)\n      dup1\n      swap2\n      sub\n      swap1\n      return\n        /* \"contracts/TP2_.sol\":3107:3137  uint256 public conteoDepositos */\n    tag_9:\n      callvalue\n      dup1\n      iszero\n      tag_44\n      jumpi\n      revert(0x00, 0x00)\n    tag_44:\n      pop\n      tag_45\n      tag_46\n      jump\t// in\n    tag_45:\n      mload(0x40)\n      tag_47\n      swap2\n      swap1\n      tag_22\n      jump\t// in\n    tag_47:\n      mload(0x40)\n      dup1\n      swap2\n      sub\n      swap1\n      return\n        /* \"contracts/TP2_.sol\":2824:2860  uint256 public immutable limiteBanco */\n    tag_10:\n      callvalue\n      dup1\n      iszero\n      tag_48\n      jumpi\n      revert(0x00, 0x00)\n    tag_48:\n      pop\n      tag_49\n      tag_50\n      jump\t// in\n    tag_49:\n      mload(0x40)\n      tag_51\n      swap2\n      swap1\n      tag_22\n      jump\t// in\n    tag_51:\n      mload(0x40)\n      dup1\n      swap2\n      sub\n      swap1\n      return\n        /* \"contracts/TP2_.sol\":5873:6529  function retirar(uint256 monto) external noCero(monto) {... */\n    tag_11:\n      callvalue\n      dup1\n      iszero\n      tag_52\n      jumpi\n      revert(0x00, 0x00)\n    tag_52:\n      pop\n      tag_53\n      0x04\n      dup1\n      calldatasize\n      sub\n      dup2\n      add\n      swap1\n      tag_54\n      swap2\n      swap1\n      tag_55\n      jump\t// in\n    tag_54:\n      tag_56\n      jump\t// in\n    tag_53:\n      stop\n        /* \"contracts/TP2_.sol\":3447:3488  mapping(address => uint256) public boveda */\n    tag_12:\n      callvalue\n      dup1\n      iszero\n      tag_57\n      jumpi\n      revert(0x00, 0x00)\n    tag_57:\n      pop\n      tag_58\n      0x04\n      dup1\n      calldatasize\n      sub\n      dup2\n      add\n      swap1\n      tag_59\n      swap2\n      swap1\n      tag_41\n      jump\t// in\n    tag_59:\n      tag_60\n      jump\t// in\n    tag_58:\n      mload(0x40)\n      tag_61\n      swap2\n      swap1\n      tag_22\n      jump\t// in\n    tag_61:\n      mload(0x40)\n      dup1\n      swap2\n      sub\n      swap1\n      return\n        /* \"contracts/TP2_.sol\":2989:3029  uint256 public immutable topeRetiroPorTx */\n    tag_20:\n      immutable(\"0xe921da22f871c25c63f06c1365385cbb26397f64f79055cdbab32187a9377d16\")\n      dup2\n      jump\t// out\n        /* \"contracts/TP2_.sol\":5096:5641  function depositar() external payable noCero(msg.value) {... */\n    tag_24:\n        /* \"contracts/TP2_.sol\":5141:5150  msg.value */\n      callvalue\n        /* \"contracts/TP2_.sol\":3847:3848  0 */\n      0x00\n        /* \"contracts/TP2_.sol\":3838:3843  monto */\n      dup2\n        /* \"contracts/TP2_.sol\":3838:3848  monto == 0 */\n      sub\n        /* \"contracts/TP2_.sol\":3834:3868  if (monto == 0) revert MontoCero() */\n      tag_63\n      jumpi\n        /* \"contracts/TP2_.sol\":3857:3868  MontoCero() */\n      mload(0x40)\n      0x85ea51af00000000000000000000000000000000000000000000000000000000\n      dup2\n      mstore\n      0x04\n      add\n      mload(0x40)\n      dup1\n      swap2\n      sub\n      swap1\n      revert\n        /* \"contracts/TP2_.sol\":3834:3868  if (monto == 0) revert MontoCero() */\n    tag_63:\n        /* \"contracts/TP2_.sol\":5182:5200  uint256 nuevoTotal */\n      0x00\n        /* \"contracts/TP2_.sol\":5221:5230  msg.value */\n      callvalue\n        /* \"contracts/TP2_.sol\":5203:5218  saldoBancoTotal */\n      sload(0x02)\n        /* \"contracts/TP2_.sol\":5203:5230  saldoBancoTotal + msg.value */\n      tag_65\n      swap2\n      swap1\n      tag_66\n      jump\t// in\n    tag_65:\n        /* \"contracts/TP2_.sol\":5182:5230  uint256 nuevoTotal = saldoBancoTotal + msg.value */\n      swap1\n      pop\n        /* \"contracts/TP2_.sol\":5258:5269  limiteBanco */\n      immutable(\"0x6b3e710f3089a74ecb6b0f5948e5ff07a3db6ba4da475d2be17624ba96b95b\")\n        /* \"contracts/TP2_.sol\":5245:5255  nuevoTotal */\n      dup2\n        /* \"contracts/TP2_.sol\":5245:5269  nuevoTotal > limiteBanco */\n      gt\n        /* \"contracts/TP2_.sol\":5241:5347  if (nuevoTotal > limiteBanco) {... */\n      iszero\n      tag_67\n      jumpi\n        /* \"contracts/TP2_.sol\":5311:5321  nuevoTotal */\n      dup1\n        /* \"contracts/TP2_.sol\":5323:5334  limiteBanco */\n      immutable(\"0x6b3e710f3089a74ecb6b0f5948e5ff07a3db6ba4da475d2be17624ba96b95b\")\n        /* \"contracts/TP2_.sol\":5293:5335  TopeBancoExcedido(nuevoTotal, limiteBanco) */\n      mload(0x40)\n      0x0868d0f300000000000000000000000000000000000000000000000000000000\n      dup2\n      mstore\n      0x04\n      add\n      tag_68\n      swap3\n      swap2\n      swap1\n      tag_69\n      jump\t// in\n    tag_68:\n      mload(0x40)\n      dup1\n      swap2\n      sub\n      swap1\n      revert\n        /* \"contracts/TP2_.sol\":5241:5347  if (nuevoTotal > limiteBanco) {... */\n    tag_67:\n        /* \"contracts/TP2_.sol\":5401:5410  msg.value */\n      callvalue\n        /* \"contracts/TP2_.sol\":5379:5385  boveda */\n      0x03\n        /* \"contracts/TP2_.sol\":5379:5397  boveda[msg.sender] */\n      0x00\n        /* \"contracts/TP2_.sol\":5386:5396  msg.sender */\n      caller\n        /* \"contracts/TP2_.sol\":5379:5397  boveda[msg.sender] */\n      0xffffffffffffffffffffffffffffffffffffffff\n      and\n      0xffffffffffffffffffffffffffffffffffffffff\n      and\n      dup2\n      mstore\n      0x20\n      add\n      swap1\n      dup2\n      mstore\n      0x20\n      add\n      0x00\n      keccak256\n      0x00\n        /* \"contracts/TP2_.sol\":5379:5410  boveda[msg.sender] += msg.value */\n      dup3\n      dup3\n      sload\n      tag_70\n      swap2\n      swap1\n      tag_66\n      jump\t// in\n    tag_70:\n      swap3\n      pop\n      pop\n      dup2\n      swap1\n      sstore\n      pop\n        /* \"contracts/TP2_.sol\":5439:5449  nuevoTotal */\n      dup1\n        /* \"contracts/TP2_.sol\":5421:5436  saldoBancoTotal */\n      0x02\n        /* \"contracts/TP2_.sol\":5421:5449  saldoBancoTotal = nuevoTotal */\n      dup2\n      swap1\n      sstore\n      pop\n        /* \"contracts/TP2_.sol\":5485:5500  conteoDepositos */\n      0x00\n      0x00\n        /* \"contracts/TP2_.sol\":5485:5502  conteoDepositos++ */\n      dup2\n      sload\n      dup1\n      swap3\n      swap2\n      swap1\n      0x01\n      add\n      swap2\n      swap1\n      pop\n      sstore\n      pop\n        /* \"contracts/TP2_.sol\":5591:5601  msg.sender */\n      caller\n        /* \"contracts/TP2_.sol\":5580:5633  Depositado(msg.sender, msg.value, boveda[msg.sender]) */\n      0xffffffffffffffffffffffffffffffffffffffff\n      and\n      0xea84ab1b96a4df052463c82c30614a8f1e466190b2cba7bf294b6fb8a77b9b20\n        /* \"contracts/TP2_.sol\":5603:5612  msg.value */\n      callvalue\n        /* \"contracts/TP2_.sol\":5614:5620  boveda */\n      0x03\n        /* \"contracts/TP2_.sol\":5614:5632  boveda[msg.sender] */\n      0x00\n        /* \"contracts/TP2_.sol\":5621:5631  msg.sender */\n      caller\n        /* \"contracts/TP2_.sol\":5614:5632  boveda[msg.sender] */\n      0xffffffffffffffffffffffffffffffffffffffff\n      and\n      0xffffffffffffffffffffffffffffffffffffffff\n      and\n      dup2\n      mstore\n      0x20\n      add\n      swap1\n      dup2\n      mstore\n      0x20\n      add\n      0x00\n      keccak256\n      sload\n        /* \"contracts/TP2_.sol\":5580:5633  Depositado(msg.sender, msg.value, boveda[msg.sender]) */\n      mload(0x40)\n      tag_71\n      swap3\n      swap2\n      swap1\n      tag_69\n      jump\t// in\n    tag_71:\n      mload(0x40)\n      dup1\n      swap2\n      sub\n      swap1\n      log2\n        /* \"contracts/TP2_.sol\":5152:5641  {... */\n      pop\n        /* \"contracts/TP2_.sol\":5096:5641  function depositar() external payable noCero(msg.value) {... */\n      pop\n      jump\t// out\n        /* \"contracts/TP2_.sol\":3329:3359  uint256 public saldoBancoTotal */\n    tag_27:\n      sload(0x02)\n      dup2\n      jump\t// out\n        /* \"contracts/TP2_.sol\":3212:3240  uint256 public conteoRetiros */\n    tag_31:\n      sload(0x01)\n      dup2\n      jump\t// out\n        /* \"contracts/TP2_.sol\":7182:7412  function estadisticas()... */\n    tag_35:\n        /* \"contracts/TP2_.sol\":7256:7280  uint256 _saldoBancoTotal */\n      0x00\n        /* \"contracts/TP2_.sol\":7282:7306  uint256 _conteoDepositos */\n      0x00\n        /* \"contracts/TP2_.sol\":7308:7330  uint256 _conteoRetiros */\n      0x00\n        /* \"contracts/TP2_.sol\":7356:7371  saldoBancoTotal */\n      sload(0x02)\n        /* \"contracts/TP2_.sol\":7373:7388  conteoDepositos */\n      sload(0x00)\n        /* \"contracts/TP2_.sol\":7390:7403  conteoRetiros */\n      sload(0x01)\n        /* \"contracts/TP2_.sol\":7348:7404  return (saldoBancoTotal, conteoDepositos, conteoRetiros) */\n      swap3\n      pop\n      swap3\n      pop\n      swap3\n      pop\n        /* \"contracts/TP2_.sol\":7182:7412  function estadisticas()... */\n      swap1\n      swap2\n      swap3\n      jump\t// out\n        /* \"contracts/TP2_.sol\":6845:6952  function saldoDe(address usuario) external view returns (uint256) {... */\n    tag_42:\n        /* \"contracts/TP2_.sol\":6902:6909  uint256 */\n      0x00\n        /* \"contracts/TP2_.sol\":6929:6935  boveda */\n      0x03\n        /* \"contracts/TP2_.sol\":6929:6944  boveda[usuario] */\n      0x00\n        /* \"contracts/TP2_.sol\":6936:6943  usuario */\n      dup4\n        /* \"contracts/TP2_.sol\":6929:6944  boveda[usuario] */\n      0xffffffffffffffffffffffffffffffffffffffff\n      and\n      0xffffffffffffffffffffffffffffffffffffffff\n      and\n      dup2\n      mstore\n      0x20\n      add\n      swap1\n      dup2\n      mstore\n      0x20\n      add\n      0x00\n      keccak256\n      sload\n        /* \"contracts/TP2_.sol\":6922:6944  return boveda[usuario] */\n      swap1\n      pop\n        /* \"contracts/TP2_.sol\":6845:6952  function saldoDe(address usuario) external view returns (uint256) {... */\n      swap2\n      swap1\n      pop\n      jump\t// out\n        /* \"contracts/TP2_.sol\":3107:3137  uint256 public conteoDepositos */\n    tag_46:\n      sload(0x00)\n      dup2\n      jump\t// out\n        /* \"contracts/TP2_.sol\":2824:2860  uint256 public immutable limiteBanco */\n    tag_50:\n      immutable(\"0x6b3e710f3089a74ecb6b0f5948e5ff07a3db6ba4da475d2be17624ba96b95b\")\n      dup2\n      jump\t// out\n        /* \"contracts/TP2_.sol\":5873:6529  function retirar(uint256 monto) external noCero(monto) {... */\n    tag_56:\n        /* \"contracts/TP2_.sol\":5921:5926  monto */\n      dup1\n        /* \"contracts/TP2_.sol\":3847:3848  0 */\n      0x00\n        /* \"contracts/TP2_.sol\":3838:3843  monto */\n      dup2\n        /* \"contracts/TP2_.sol\":3838:3848  monto == 0 */\n      sub\n        /* \"contracts/TP2_.sol\":3834:3868  if (monto == 0) revert MontoCero() */\n      tag_75\n      jumpi\n        /* \"contracts/TP2_.sol\":3857:3868  MontoCero() */\n      mload(0x40)\n      0x85ea51af00000000000000000000000000000000000000000000000000000000\n      dup2\n      mstore\n      0x04\n      add\n      mload(0x40)\n      dup1\n      swap2\n      sub\n      swap1\n      revert\n        /* \"contracts/TP2_.sol\":3834:3868  if (monto == 0) revert MontoCero() */\n    tag_75:\n        /* \"contracts/TP2_.sol\":5970:5985  topeRetiroPorTx */\n      immutable(\"0xe921da22f871c25c63f06c1365385cbb26397f64f79055cdbab32187a9377d16\")\n        /* \"contracts/TP2_.sol\":5962:5967  monto */\n      dup3\n        /* \"contracts/TP2_.sol\":5962:5985  monto > topeRetiroPorTx */\n      gt\n        /* \"contracts/TP2_.sol\":5958:6060  if (monto > topeRetiroPorTx) {... */\n      iszero\n      tag_77\n      jumpi\n        /* \"contracts/TP2_.sol\":6025:6030  monto */\n      dup2\n        /* \"contracts/TP2_.sol\":6032:6047  topeRetiroPorTx */\n      immutable(\"0xe921da22f871c25c63f06c1365385cbb26397f64f79055cdbab32187a9377d16\")\n        /* \"contracts/TP2_.sol\":6009:6048  RetiroSobreTope(monto, topeRetiroPorTx) */\n      mload(0x40)\n      0xe910694600000000000000000000000000000000000000000000000000000000\n      dup2\n      mstore\n      0x04\n      add\n      tag_78\n      swap3\n      swap2\n      swap1\n      tag_69\n      jump\t// in\n    tag_78:\n      mload(0x40)\n      dup1\n      swap2\n      sub\n      swap1\n      revert\n        /* \"contracts/TP2_.sol\":5958:6060  if (monto > topeRetiroPorTx) {... */\n    tag_77:\n        /* \"contracts/TP2_.sol\":6070:6081  uint256 bal */\n      0x00\n        /* \"contracts/TP2_.sol\":6084:6090  boveda */\n      0x03\n        /* \"contracts/TP2_.sol\":6084:6102  boveda[msg.sender] */\n      0x00\n        /* \"contracts/TP2_.sol\":6091:6101  msg.sender */\n      caller\n        /* \"contracts/TP2_.sol\":6084:6102  boveda[msg.sender] */\n      0xffffffffffffffffffffffffffffffffffffffff\n      and\n      0xffffffffffffffffffffffffffffffffffffffff\n      and\n      dup2\n      mstore\n      0x20\n      add\n      swap1\n      dup2\n      mstore\n      0x20\n      add\n      0x00\n      keccak256\n      sload\n        /* \"contracts/TP2_.sol\":6070:6102  uint256 bal = boveda[msg.sender] */\n      swap1\n      pop\n        /* \"contracts/TP2_.sol\":6125:6128  bal */\n      dup1\n        /* \"contracts/TP2_.sol\":6117:6122  monto */\n      dup4\n        /* \"contracts/TP2_.sol\":6117:6128  monto > bal */\n      gt\n        /* \"contracts/TP2_.sol\":6113:6195  if (monto > bal) {... */\n      iszero\n      tag_79\n      jumpi\n        /* \"contracts/TP2_.sol\":6172:6177  monto */\n      dup3\n        /* \"contracts/TP2_.sol\":6179:6182  bal */\n      dup2\n        /* \"contracts/TP2_.sol\":6152:6183  BalanceInsuficiente(monto, bal) */\n      mload(0x40)\n      0xed7d0c4000000000000000000000000000000000000000000000000000000000\n      dup2\n      mstore\n      0x04\n      add\n      tag_80\n      swap3\n      swap2\n      swap1\n      tag_69\n      jump\t// in\n    tag_80:\n      mload(0x40)\n      dup1\n      swap2\n      sub\n      swap1\n      revert\n        /* \"contracts/TP2_.sol\":6113:6195  if (monto > bal) {... */\n    tag_79:\n        /* \"contracts/TP2_.sol\":6279:6284  monto */\n      dup3\n        /* \"contracts/TP2_.sol\":6273:6276  bal */\n      dup2\n        /* \"contracts/TP2_.sol\":6273:6284  bal - monto */\n      sub\n        /* \"contracts/TP2_.sol\":6252:6258  boveda */\n      0x03\n        /* \"contracts/TP2_.sol\":6252:6270  boveda[msg.sender] */\n      0x00\n        /* \"contracts/TP2_.sol\":6259:6269  msg.sender */\n      caller\n        /* \"contracts/TP2_.sol\":6252:6270  boveda[msg.sender] */\n      0xffffffffffffffffffffffffffffffffffffffff\n      and\n      0xffffffffffffffffffffffffffffffffffffffff\n      and\n      dup2\n      mstore\n      0x20\n      add\n      swap1\n      dup2\n      mstore\n      0x20\n      add\n      0x00\n      keccak256\n        /* \"contracts/TP2_.sol\":6252:6284  boveda[msg.sender] = bal - monto */\n      dup2\n      swap1\n      sstore\n      pop\n        /* \"contracts/TP2_.sol\":6318:6323  monto */\n      dup3\n        /* \"contracts/TP2_.sol\":6299:6314  saldoBancoTotal */\n      0x02\n      0x00\n        /* \"contracts/TP2_.sol\":6299:6323  saldoBancoTotal -= monto */\n      dup3\n      dup3\n      sload\n      sub\n      swap3\n      pop\n      pop\n      dup2\n      swap1\n      sstore\n      pop\n        /* \"contracts/TP2_.sol\":6338:6351  conteoRetiros */\n      0x01\n      0x00\n        /* \"contracts/TP2_.sol\":6338:6353  conteoRetiros++ */\n      dup2\n      sload\n      dup1\n      swap3\n      swap2\n      swap1\n      0x01\n      add\n      swap2\n      swap1\n      pop\n      sstore\n      pop\n        /* \"contracts/TP2_.sol\":6402:6456  _transferenciaNativaSegura(payable(msg.sender), monto) */\n      tag_81\n        /* \"contracts/TP2_.sol\":6437:6447  msg.sender */\n      caller\n        /* \"contracts/TP2_.sol\":6450:6455  monto */\n      dup5\n        /* \"contracts/TP2_.sol\":6402:6428  _transferenciaNativaSegura */\n      tag_82\n        /* \"contracts/TP2_.sol\":6402:6456  _transferenciaNativaSegura(payable(msg.sender), monto) */\n      jump\t// in\n    tag_81:\n        /* \"contracts/TP2_.sol\":6483:6493  msg.sender */\n      caller\n        /* \"contracts/TP2_.sol\":6474:6521  Retirado(msg.sender, monto, boveda[msg.sender]) */\n      0xffffffffffffffffffffffffffffffffffffffff\n      and\n      0xea4739a01bb01fe29fa71e248c4c05b41fa8dc1a1c62b9afe577470d1d2d2c27\n        /* \"contracts/TP2_.sol\":6495:6500  monto */\n      dup5\n        /* \"contracts/TP2_.sol\":6502:6508  boveda */\n      0x03\n        /* \"contracts/TP2_.sol\":6502:6520  boveda[msg.sender] */\n      0x00\n        /* \"contracts/TP2_.sol\":6509:6519  msg.sender */\n      caller\n        /* \"contracts/TP2_.sol\":6502:6520  boveda[msg.sender] */\n      0xffffffffffffffffffffffffffffffffffffffff\n      and\n      0xffffffffffffffffffffffffffffffffffffffff\n      and\n      dup2\n      mstore\n      0x20\n      add\n      swap1\n      dup2\n      mstore\n      0x20\n      add\n      0x00\n      keccak256\n      sload\n        /* \"contracts/TP2_.sol\":6474:6521  Retirado(msg.sender, monto, boveda[msg.sender]) */\n      mload(0x40)\n      tag_83\n      swap3\n      swap2\n      swap1\n      tag_69\n      jump\t// in\n    tag_83:\n      mload(0x40)\n      dup1\n      swap2\n      sub\n      swap1\n      log2\n        /* \"contracts/TP2_.sol\":5928:6529  {... */\n      pop\n        /* \"contracts/TP2_.sol\":5873:6529  function retirar(uint256 monto) external noCero(monto) {... */\n      pop\n      pop\n      jump\t// out\n        /* \"contracts/TP2_.sol\":3447:3488  mapping(address => uint256) public boveda */\n    tag_60:\n      mstore(0x20, 0x03)\n      dup1\n      0x00\n      mstore\n      keccak256(0x00, 0x40)\n      0x00\n      swap2\n      pop\n      swap1\n      pop\n      sload\n      dup2\n      jump\t// out\n        /* \"contracts/TP2_.sol\":7766:7964  function _transferenciaNativaSegura(address payable a, uint256 monto) private {... */\n    tag_82:\n        /* \"contracts/TP2_.sol\":7856:7863  bool ok */\n      0x00\n        /* \"contracts/TP2_.sol\":7869:7870  a */\n      dup3\n        /* \"contracts/TP2_.sol\":7869:7875  a.call */\n      0xffffffffffffffffffffffffffffffffffffffff\n      and\n        /* \"contracts/TP2_.sol\":7883:7888  monto */\n      dup3\n        /* \"contracts/TP2_.sol\":7869:7893  a.call{value: monto}(\"\") */\n      mload(0x40)\n      tag_85\n      swap1\n      tag_86\n      jump\t// in\n    tag_85:\n      0x00\n      mload(0x40)\n      dup1\n      dup4\n      sub\n      dup2\n      dup6\n      dup8\n      gas\n      call\n      swap3\n      pop\n      pop\n      pop\n      returndatasize\n      dup1\n      0x00\n      dup2\n      eq\n      tag_89\n      jumpi\n      mload(0x40)\n      swap2\n      pop\n      and(add(returndatasize, 0x3f), not(0x1f))\n      dup3\n      add\n      0x40\n      mstore\n      returndatasize\n      dup3\n      mstore\n      returndatasize\n      0x00\n      0x20\n      dup5\n      add\n      returndatacopy\n      jump(tag_88)\n    tag_89:\n      0x60\n      swap2\n      pop\n    tag_88:\n      pop\n        /* \"contracts/TP2_.sol\":7855:7893  (bool ok, ) = a.call{value: monto}(\"\") */\n      pop\n      swap1\n      pop\n        /* \"contracts/TP2_.sol\":7909:7911  ok */\n      dup1\n        /* \"contracts/TP2_.sol\":7904:7956  if (!ok) revert TransferenciaNativaFallida(a, monto) */\n      tag_90\n      jumpi\n        /* \"contracts/TP2_.sol\":7947:7948  a */\n      dup3\n        /* \"contracts/TP2_.sol\":7950:7955  monto */\n      dup3\n        /* \"contracts/TP2_.sol\":7920:7956  TransferenciaNativaFallida(a, monto) */\n      mload(0x40)\n      0x087f639500000000000000000000000000000000000000000000000000000000\n      dup2\n      mstore\n      0x04\n      add\n      tag_91\n      swap3\n      swap2\n      swap1\n      tag_92\n      jump\t// in\n    tag_91:\n      mload(0x40)\n      dup1\n      swap2\n      sub\n      swap1\n      revert\n        /* \"contracts/TP2_.sol\":7904:7956  if (!ok) revert TransferenciaNativaFallida(a, monto) */\n    tag_90:\n        /* \"contracts/TP2_.sol\":7844:7964  {... */\n      pop\n        /* \"contracts/TP2_.sol\":7766:7964  function _transferenciaNativaSegura(address payable a, uint256 monto) private {... */\n      pop\n      pop\n      jump\t// out\n        /* \"#utility.yul\":7:84   */\n    tag_93:\n        /* \"#utility.yul\":44:51   */\n      0x00\n        /* \"#utility.yul\":73:78   */\n      dup2\n        /* \"#utility.yul\":62:78   */\n      swap1\n      pop\n        /* \"#utility.yul\":7:84   */\n      swap2\n      swap1\n      pop\n      jump\t// out\n        /* \"#utility.yul\":90:208   */\n    tag_94:\n        /* \"#utility.yul\":177:201   */\n      tag_116\n        /* \"#utility.yul\":195:200   */\n      dup2\n        /* \"#utility.yul\":177:201   */\n      tag_93\n      jump\t// in\n    tag_116:\n        /* \"#utility.yul\":172:175   */\n      dup3\n        /* \"#utility.yul\":165:202   */\n      mstore\n        /* \"#utility.yul\":90:208   */\n      pop\n      pop\n      jump\t// out\n        /* \"#utility.yul\":214:436   */\n    tag_22:\n        /* \"#utility.yul\":307:311   */\n      0x00\n        /* \"#utility.yul\":345:347   */\n      0x20\n        /* \"#utility.yul\":334:343   */\n      dup3\n        /* \"#utility.yul\":330:348   */\n      add\n        /* \"#utility.yul\":322:348   */\n      swap1\n      pop\n        /* \"#utility.yul\":358:429   */\n      tag_118\n        /* \"#utility.yul\":426:427   */\n      0x00\n        /* \"#utility.yul\":415:424   */\n      dup4\n        /* \"#utility.yul\":411:428   */\n      add\n        /* \"#utility.yul\":402:408   */\n      dup5\n        /* \"#utility.yul\":358:429   */\n      tag_94\n      jump\t// in\n    tag_118:\n        /* \"#utility.yul\":214:436   */\n      swap3\n      swap2\n      pop\n      pop\n      jump\t// out\n        /* \"#utility.yul\":442:884   */\n    tag_37:\n        /* \"#utility.yul\":591:595   */\n      0x00\n        /* \"#utility.yul\":629:631   */\n      0x60\n        /* \"#utility.yul\":618:627   */\n      dup3\n        /* \"#utility.yul\":614:632   */\n      add\n        /* \"#utility.yul\":606:632   */\n      swap1\n      pop\n        /* \"#utility.yul\":642:713   */\n      tag_120\n        /* \"#utility.yul\":710:711   */\n      0x00\n        /* \"#utility.yul\":699:708   */\n      dup4\n        /* \"#utility.yul\":695:712   */\n      add\n        /* \"#utility.yul\":686:692   */\n      dup7\n        /* \"#utility.yul\":642:713   */\n      tag_94\n      jump\t// in\n    tag_120:\n        /* \"#utility.yul\":723:795   */\n      tag_121\n        /* \"#utility.yul\":791:793   */\n      0x20\n        /* \"#utility.yul\":780:789   */\n      dup4\n        /* \"#utility.yul\":776:794   */\n      add\n        /* \"#utility.yul\":767:773   */\n      dup6\n        /* \"#utility.yul\":723:795   */\n      tag_94\n      jump\t// in\n    tag_121:\n        /* \"#utility.yul\":805:877   */\n      tag_122\n        /* \"#utility.yul\":873:875   */\n      0x40\n        /* \"#utility.yul\":862:871   */\n      dup4\n        /* \"#utility.yul\":858:876   */\n      add\n        /* \"#utility.yul\":849:855   */\n      dup5\n        /* \"#utility.yul\":805:877   */\n      tag_94\n      jump\t// in\n    tag_122:\n        /* \"#utility.yul\":442:884   */\n      swap5\n      swap4\n      pop\n      pop\n      pop\n      pop\n      jump\t// out\n        /* \"#utility.yul\":971:1088   */\n    tag_96:\n        /* \"#utility.yul\":1080:1081   */\n      0x00\n        /* \"#utility.yul\":1077:1078   */\n      0x00\n        /* \"#utility.yul\":1070:1082   */\n      revert\n        /* \"#utility.yul\":1217:1343   */\n    tag_98:\n        /* \"#utility.yul\":1254:1261   */\n      0x00\n        /* \"#utility.yul\":1294:1336   */\n      0xffffffffffffffffffffffffffffffffffffffff\n        /* \"#utility.yul\":1287:1292   */\n      dup3\n        /* \"#utility.yul\":1283:1337   */\n      and\n        /* \"#utility.yul\":1272:1337   */\n      swap1\n      pop\n        /* \"#utility.yul\":1217:1343   */\n      swap2\n      swap1\n      pop\n      jump\t// out\n        /* \"#utility.yul\":1349:1445   */\n    tag_99:\n        /* \"#utility.yul\":1386:1393   */\n      0x00\n        /* \"#utility.yul\":1415:1439   */\n      tag_128\n        /* \"#utility.yul\":1433:1438   */\n      dup3\n        /* \"#utility.yul\":1415:1439   */\n      tag_98\n      jump\t// in\n    tag_128:\n        /* \"#utility.yul\":1404:1439   */\n      swap1\n      pop\n        /* \"#utility.yul\":1349:1445   */\n      swap2\n      swap1\n      pop\n      jump\t// out\n        /* \"#utility.yul\":1451:1573   */\n    tag_100:\n        /* \"#utility.yul\":1524:1548   */\n      tag_130\n        /* \"#utility.yul\":1542:1547   */\n      dup2\n        /* \"#utility.yul\":1524:1548   */\n      tag_99\n      jump\t// in\n    tag_130:\n        /* \"#utility.yul\":1517:1522   */\n      dup2\n        /* \"#utility.yul\":1514:1549   */\n      eq\n        /* \"#utility.yul\":1504:1567   */\n      tag_131\n      jumpi\n        /* \"#utility.yul\":1563:1564   */\n      0x00\n        /* \"#utility.yul\":1560:1561   */\n      0x00\n        /* \"#utility.yul\":1553:1565   */\n      revert\n        /* \"#utility.yul\":1504:1567   */\n    tag_131:\n        /* \"#utility.yul\":1451:1573   */\n      pop\n      jump\t// out\n        /* \"#utility.yul\":1579:1718   */\n    tag_101:\n        /* \"#utility.yul\":1625:1630   */\n      0x00\n        /* \"#utility.yul\":1663:1669   */\n      dup2\n        /* \"#utility.yul\":1650:1670   */\n      calldataload\n        /* \"#utility.yul\":1641:1670   */\n      swap1\n      pop\n        /* \"#utility.yul\":1679:1712   */\n      tag_133\n        /* \"#utility.yul\":1706:1711   */\n      dup2\n        /* \"#utility.yul\":1679:1712   */\n      tag_100\n      jump\t// in\n    tag_133:\n        /* \"#utility.yul\":1579:1718   */\n      swap3\n      swap2\n      pop\n      pop\n      jump\t// out\n        /* \"#utility.yul\":1724:2053   */\n    tag_41:\n        /* \"#utility.yul\":1783:1789   */\n      0x00\n        /* \"#utility.yul\":1832:1834   */\n      0x20\n        /* \"#utility.yul\":1820:1829   */\n      dup3\n        /* \"#utility.yul\":1811:1818   */\n      dup5\n        /* \"#utility.yul\":1807:1830   */\n      sub\n        /* \"#utility.yul\":1803:1835   */\n      slt\n        /* \"#utility.yul\":1800:1919   */\n      iszero\n      tag_135\n      jumpi\n        /* \"#utility.yul\":1838:1917   */\n      tag_136\n      tag_96\n      jump\t// in\n    tag_136:\n        /* \"#utility.yul\":1800:1919   */\n    tag_135:\n        /* \"#utility.yul\":1958:1959   */\n      0x00\n        /* \"#utility.yul\":1983:2036   */\n      tag_137\n        /* \"#utility.yul\":2028:2035   */\n      dup5\n        /* \"#utility.yul\":2019:2025   */\n      dup3\n        /* \"#utility.yul\":2008:2017   */\n      dup6\n        /* \"#utility.yul\":2004:2026   */\n      add\n        /* \"#utility.yul\":1983:2036   */\n      tag_101\n      jump\t// in\n    tag_137:\n        /* \"#utility.yul\":1973:2036   */\n      swap2\n      pop\n        /* \"#utility.yul\":1929:2046   */\n      pop\n        /* \"#utility.yul\":1724:2053   */\n      swap3\n      swap2\n      pop\n      pop\n      jump\t// out\n        /* \"#utility.yul\":2059:2181   */\n    tag_102:\n        /* \"#utility.yul\":2132:2156   */\n      tag_139\n        /* \"#utility.yul\":2150:2155   */\n      dup2\n        /* \"#utility.yul\":2132:2156   */\n      tag_93\n      jump\t// in\n    tag_139:\n        /* \"#utility.yul\":2125:2130   */\n      dup2\n        /* \"#utility.yul\":2122:2157   */\n      eq\n        /* \"#utility.yul\":2112:2175   */\n      tag_140\n      jumpi\n        /* \"#utility.yul\":2171:2172   */\n      0x00\n        /* \"#utility.yul\":2168:2169   */\n      0x00\n        /* \"#utility.yul\":2161:2173   */\n      revert\n        /* \"#utility.yul\":2112:2175   */\n    tag_140:\n        /* \"#utility.yul\":2059:2181   */\n      pop\n      jump\t// out\n        /* \"#utility.yul\":2187:2326   */\n    tag_103:\n        /* \"#utility.yul\":2233:2238   */\n      0x00\n        /* \"#utility.yul\":2271:2277   */\n      dup2\n        /* \"#utility.yul\":2258:2278   */\n      calldataload\n        /* \"#utility.yul\":2249:2278   */\n      swap1\n      pop\n        /* \"#utility.yul\":2287:2320   */\n      tag_142\n        /* \"#utility.yul\":2314:2319   */\n      dup2\n        /* \"#utility.yul\":2287:2320   */\n      tag_102\n      jump\t// in\n    tag_142:\n        /* \"#utility.yul\":2187:2326   */\n      swap3\n      swap2\n      pop\n      pop\n      jump\t// out\n        /* \"#utility.yul\":2332:2661   */\n    tag_55:\n        /* \"#utility.yul\":2391:2397   */\n      0x00\n        /* \"#utility.yul\":2440:2442   */\n      0x20\n        /* \"#utility.yul\":2428:2437   */\n      dup3\n        /* \"#utility.yul\":2419:2426   */\n      dup5\n        /* \"#utility.yul\":2415:2438   */\n      sub\n        /* \"#utility.yul\":2411:2443   */\n      slt\n        /* \"#utility.yul\":2408:2527   */\n      iszero\n      tag_144\n      jumpi\n        /* \"#utility.yul\":2446:2525   */\n      tag_145\n      tag_96\n      jump\t// in\n    tag_145:\n        /* \"#utility.yul\":2408:2527   */\n    tag_144:\n        /* \"#utility.yul\":2566:2567   */\n      0x00\n        /* \"#utility.yul\":2591:2644   */\n      tag_146\n        /* \"#utility.yul\":2636:2643   */\n      dup5\n        /* \"#utility.yul\":2627:2633   */\n      dup3\n        /* \"#utility.yul\":2616:2625   */\n      dup6\n        /* \"#utility.yul\":2612:2634   */\n      add\n        /* \"#utility.yul\":2591:2644   */\n      tag_103\n      jump\t// in\n    tag_146:\n        /* \"#utility.yul\":2581:2644   */\n      swap2\n      pop\n        /* \"#utility.yul\":2537:2654   */\n      pop\n        /* \"#utility.yul\":2332:2661   */\n      swap3\n      swap2\n      pop\n      pop\n      jump\t// out\n        /* \"#utility.yul\":2667:2847   */\n    tag_104:\n        /* \"#utility.yul\":2715:2792   */\n      0x4e487b7100000000000000000000000000000000000000000000000000000000\n        /* \"#utility.yul\":2712:2713   */\n      0x00\n        /* \"#utility.yul\":2705:2793   */\n      mstore\n        /* \"#utility.yul\":2812:2816   */\n      0x11\n        /* \"#utility.yul\":2809:2810   */\n      0x04\n        /* \"#utility.yul\":2802:2817   */\n      mstore\n        /* \"#utility.yul\":2836:2840   */\n      0x24\n        /* \"#utility.yul\":2833:2834   */\n      0x00\n        /* \"#utility.yul\":2826:2841   */\n      revert\n        /* \"#utility.yul\":2853:3044   */\n    tag_66:\n        /* \"#utility.yul\":2893:2896   */\n      0x00\n        /* \"#utility.yul\":2912:2932   */\n      tag_149\n        /* \"#utility.yul\":2930:2931   */\n      dup3\n        /* \"#utility.yul\":2912:2932   */\n      tag_93\n      jump\t// in\n    tag_149:\n        /* \"#utility.yul\":2907:2932   */\n      swap2\n      pop\n        /* \"#utility.yul\":2946:2966   */\n      tag_150\n        /* \"#utility.yul\":2964:2965   */\n      dup4\n        /* \"#utility.yul\":2946:2966   */\n      tag_93\n      jump\t// in\n    tag_150:\n        /* \"#utility.yul\":2941:2966   */\n      swap3\n      pop\n        /* \"#utility.yul\":2989:2990   */\n      dup3\n        /* \"#utility.yul\":2986:2987   */\n      dup3\n        /* \"#utility.yul\":2982:2991   */\n      add\n        /* \"#utility.yul\":2975:2991   */\n      swap1\n      pop\n        /* \"#utility.yul\":3010:3013   */\n      dup1\n        /* \"#utility.yul\":3007:3008   */\n      dup3\n        /* \"#utility.yul\":3004:3014   */\n      gt\n        /* \"#utility.yul\":3001:3037   */\n      iszero\n      tag_151\n      jumpi\n        /* \"#utility.yul\":3017:3035   */\n      tag_152\n      tag_104\n      jump\t// in\n    tag_152:\n        /* \"#utility.yul\":3001:3037   */\n    tag_151:\n        /* \"#utility.yul\":2853:3044   */\n      swap3\n      swap2\n      pop\n      pop\n      jump\t// out\n        /* \"#utility.yul\":3050:3382   */\n    tag_69:\n        /* \"#utility.yul\":3171:3175   */\n      0x00\n        /* \"#utility.yul\":3209:3211   */\n      0x40\n        /* \"#utility.yul\":3198:3207   */\n      dup3\n        /* \"#utility.yul\":3194:3212   */\n      add\n        /* \"#utility.yul\":3186:3212   */\n      swap1\n      pop\n        /* \"#utility.yul\":3222:3293   */\n      tag_154\n        /* \"#utility.yul\":3290:3291   */\n      0x00\n        /* \"#utility.yul\":3279:3288   */\n      dup4\n        /* \"#utility.yul\":3275:3292   */\n      add\n        /* \"#utility.yul\":3266:3272   */\n      dup6\n        /* \"#utility.yul\":3222:3293   */\n      tag_94\n      jump\t// in\n    tag_154:\n        /* \"#utility.yul\":3303:3375   */\n      tag_155\n        /* \"#utility.yul\":3371:3373   */\n      0x20\n        /* \"#utility.yul\":3360:3369   */\n      dup4\n        /* \"#utility.yul\":3356:3374   */\n      add\n        /* \"#utility.yul\":3347:3353   */\n      dup5\n        /* \"#utility.yul\":3303:3375   */\n      tag_94\n      jump\t// in\n    tag_155:\n        /* \"#utility.yul\":3050:3382   */\n      swap4\n      swap3\n      pop\n      pop\n      pop\n      jump\t// out\n        /* \"#utility.yul\":3388:3535   */\n    tag_105:\n        /* \"#utility.yul\":3489:3500   */\n      0x00\n        /* \"#utility.yul\":3526:3529   */\n      dup2\n        /* \"#utility.yul\":3511:3529   */\n      swap1\n      pop\n        /* \"#utility.yul\":3388:3535   */\n      swap3\n      swap2\n      pop\n      pop\n      jump\t// out\n        /* \"#utility.yul\":3541:3655   */\n    tag_106:\n      pop\n      jump\t// out\n        /* \"#utility.yul\":3661:4059   */\n    tag_107:\n        /* \"#utility.yul\":3820:3823   */\n      0x00\n        /* \"#utility.yul\":3841:3924   */\n      tag_159\n        /* \"#utility.yul\":3922:3923   */\n      0x00\n        /* \"#utility.yul\":3917:3920   */\n      dup4\n        /* \"#utility.yul\":3841:3924   */\n      tag_105\n      jump\t// in\n    tag_159:\n        /* \"#utility.yul\":3834:3924   */\n      swap2\n      pop\n        /* \"#utility.yul\":3933:4026   */\n      tag_160\n        /* \"#utility.yul\":4022:4025   */\n      dup3\n        /* \"#utility.yul\":3933:4026   */\n      tag_106\n      jump\t// in\n    tag_160:\n        /* \"#utility.yul\":4051:4052   */\n      0x00\n        /* \"#utility.yul\":4046:4049   */\n      dup3\n        /* \"#utility.yul\":4042:4053   */\n      add\n        /* \"#utility.yul\":4035:4053   */\n      swap1\n      pop\n        /* \"#utility.yul\":3661:4059   */\n      swap2\n      swap1\n      pop\n      jump\t// out\n        /* \"#utility.yul\":4065:4444   */\n    tag_86:\n        /* \"#utility.yul\":4249:4252   */\n      0x00\n        /* \"#utility.yul\":4271:4418   */\n      tag_162\n        /* \"#utility.yul\":4414:4417   */\n      dup3\n        /* \"#utility.yul\":4271:4418   */\n      tag_107\n      jump\t// in\n    tag_162:\n        /* \"#utility.yul\":4264:4418   */\n      swap2\n      pop\n        /* \"#utility.yul\":4435:4438   */\n      dup2\n        /* \"#utility.yul\":4428:4438   */\n      swap1\n      pop\n        /* \"#utility.yul\":4065:4444   */\n      swap2\n      swap1\n      pop\n      jump\t// out\n        /* \"#utility.yul\":4450:4510   */\n    tag_108:\n        /* \"#utility.yul\":4478:4481   */\n      0x00\n        /* \"#utility.yul\":4499:4504   */\n      dup2\n        /* \"#utility.yul\":4492:4504   */\n      swap1\n      pop\n        /* \"#utility.yul\":4450:4510   */\n      swap2\n      swap1\n      pop\n      jump\t// out\n        /* \"#utility.yul\":4516:4658   */\n    tag_109:\n        /* \"#utility.yul\":4566:4575   */\n      0x00\n        /* \"#utility.yul\":4599:4652   */\n      tag_165\n        /* \"#utility.yul\":4617:4651   */\n      tag_166\n        /* \"#utility.yul\":4626:4650   */\n      tag_167\n        /* \"#utility.yul\":4644:4649   */\n      dup5\n        /* \"#utility.yul\":4626:4650   */\n      tag_98\n      jump\t// in\n    tag_167:\n        /* \"#utility.yul\":4617:4651   */\n      tag_108\n      jump\t// in\n    tag_166:\n        /* \"#utility.yul\":4599:4652   */\n      tag_98\n      jump\t// in\n    tag_165:\n        /* \"#utility.yul\":4586:4652   */\n      swap1\n      pop\n        /* \"#utility.yul\":4516:4658   */\n      swap2\n      swap1\n      pop\n      jump\t// out\n        /* \"#utility.yul\":4664:4790   */\n    tag_110:\n        /* \"#utility.yul\":4714:4723   */\n      0x00\n        /* \"#utility.yul\":4747:4784   */\n      tag_169\n        /* \"#utility.yul\":4778:4783   */\n      dup3\n        /* \"#utility.yul\":4747:4784   */\n      tag_109\n      jump\t// in\n    tag_169:\n        /* \"#utility.yul\":4734:4784   */\n      swap1\n      pop\n        /* \"#utility.yul\":4664:4790   */\n      swap2\n      swap1\n      pop\n      jump\t// out\n        /* \"#utility.yul\":4796:4930   */\n    tag_111:\n        /* \"#utility.yul\":4854:4863   */\n      0x00\n        /* \"#utility.yul\":4887:4924   */\n      tag_171\n        /* \"#utility.yul\":4918:4923   */\n      dup3\n        /* \"#utility.yul\":4887:4924   */\n      tag_110\n      jump\t// in\n    tag_171:\n        /* \"#utility.yul\":4874:4924   */\n      swap1\n      pop\n        /* \"#utility.yul\":4796:4930   */\n      swap2\n      swap1\n      pop\n      jump\t// out\n        /* \"#utility.yul\":4936:5083   */\n    tag_112:\n        /* \"#utility.yul\":5031:5076   */\n      tag_173\n        /* \"#utility.yul\":5070:5075   */\n      dup2\n        /* \"#utility.yul\":5031:5076   */\n      tag_111\n      jump\t// in\n    tag_173:\n        /* \"#utility.yul\":5026:5029   */\n      dup3\n        /* \"#utility.yul\":5019:5077   */\n      mstore\n        /* \"#utility.yul\":4936:5083   */\n      pop\n      pop\n      jump\t// out\n        /* \"#utility.yul\":5089:5437   */\n    tag_92:\n        /* \"#utility.yul\":5218:5222   */\n      0x00\n        /* \"#utility.yul\":5256:5258   */\n      0x40\n        /* \"#utility.yul\":5245:5254   */\n      dup3\n        /* \"#utility.yul\":5241:5259   */\n      add\n        /* \"#utility.yul\":5233:5259   */\n      swap1\n      pop\n        /* \"#utility.yul\":5269:5348   */\n      tag_175\n        /* \"#utility.yul\":5345:5346   */\n      0x00\n        /* \"#utility.yul\":5334:5343   */\n      dup4\n        /* \"#utility.yul\":5330:5347   */\n      add\n        /* \"#utility.yul\":5321:5327   */\n      dup6\n        /* \"#utility.yul\":5269:5348   */\n      tag_112\n      jump\t// in\n    tag_175:\n        /* \"#utility.yul\":5358:5430   */\n      tag_176\n        /* \"#utility.yul\":5426:5428   */\n      0x20\n        /* \"#utility.yul\":5415:5424   */\n      dup4\n        /* \"#utility.yul\":5411:5429   */\n      add\n        /* \"#utility.yul\":5402:5408   */\n      dup5\n        /* \"#utility.yul\":5358:5430   */\n      tag_94\n      jump\t// in\n    tag_176:\n        /* \"#utility.yul\":5089:5437   */\n      swap4\n      swap3\n      pop\n      pop\n      pop\n      jump\t// out\n\n    auxdata: 0xa2646970667358221220c8ba8e92ef8051ec714c01041e050dfdae8521326a86795dfd423c6184760a2064736f6c634300081e0033\n}\n",
				"bytecode": {
					"linkReferences": {},
					"object": "60c060405234801561000f575f5ffd5b50604051610c85380380610c858339818101604052810190610031919061010b565b5f8203610077575f5f6040517f0868d0f300000000000000000000000000000000000000000000000000000000815260040161006e92919061018b565b60405180910390fd5b5f81036100bd575f5f6040517fe91069460000000000000000000000000000000000000000000000000000000081526004016100b492919061018b565b60405180910390fd5b81608081815250508060a0818152505050506101b2565b5f5ffd5b5f819050919050565b6100ea816100d8565b81146100f4575f5ffd5b50565b5f81519050610105816100e1565b92915050565b5f5f60408385031215610121576101206100d4565b5b5f61012e858286016100f7565b925050602061013f858286016100f7565b9150509250929050565b5f819050919050565b5f819050919050565b5f61017561017061016b84610149565b610152565b6100d8565b9050919050565b6101858161015b565b82525050565b5f60408201905061019e5f83018561017c565b6101ab602083018461017c565b9392505050565b60805160a051610a966101ef5f395f8181610243015281816104ff015261052801525f81816102b2015281816102db01526104a10152610a965ff3fe608060405260043610610094575f3560e01c80636baf38ca116100585780636baf38ca1461014d578063a9cb0ca014610189578063c8ddec1b146101b3578063e8b1298f146101dd578063fee88b611461020557610095565b806315a68416146100995780633d922f90146100c357806347572014146100cd578063499bbada146100f7578063566fea9d1461012157610095565b5b5f5ffd5b3480156100a4575f5ffd5b506100ad610241565b6040516100ba91906107ea565b60405180910390f35b6100cb610265565b005b3480156100d8575f5ffd5b506100e1610432565b6040516100ee91906107ea565b60405180910390f35b348015610102575f5ffd5b5061010b610438565b60405161011891906107ea565b60405180910390f35b34801561012c575f5ffd5b5061013561043e565b60405161014493929190610803565b60405180910390f35b348015610158575f5ffd5b50610173600480360381019061016e9190610896565b610454565b60405161018091906107ea565b60405180910390f35b348015610194575f5ffd5b5061019d61049a565b6040516101aa91906107ea565b60405180910390f35b3480156101be575f5ffd5b506101c761049f565b6040516101d491906107ea565b60405180910390f35b3480156101e8575f5ffd5b5061020360048036038101906101fe91906108eb565b6104c3565b005b348015610210575f5ffd5b5061022b60048036038101906102269190610896565b61070c565b60405161023891906107ea565b60405180910390f35b7f000000000000000000000000000000000000000000000000000000000000000081565b345f810361029f576040517f85ea51af00000000000000000000000000000000000000000000000000000000815260040160405180910390fd5b5f346002546102ae9190610943565b90507f000000000000000000000000000000000000000000000000000000000000000081111561033757807f00000000000000000000000000000000000000000000000000000000000000006040517f0868d0f300000000000000000000000000000000000000000000000000000000815260040161032e929190610976565b60405180910390fd5b3460035f3373ffffffffffffffffffffffffffffffffffffffff1673ffffffffffffffffffffffffffffffffffffffff1681526020019081526020015f205f8282546103839190610943565b92505081905550806002819055505f5f81548092919060010191905055503373ffffffffffffffffffffffffffffffffffffffff167fea84ab1b96a4df052463c82c30614a8f1e466190b2cba7bf294b6fb8a77b9b203460035f3373ffffffffffffffffffffffffffffffffffffffff1673ffffffffffffffffffffffffffffffffffffffff1681526020019081526020015f2054604051610426929190610976565b60405180910390a25050565b60025481565b60015481565b5f5f5f6002545f54600154925092509250909192565b5f60035f8373ffffffffffffffffffffffffffffffffffffffff1673ffffffffffffffffffffffffffffffffffffffff1681526020019081526020015f20549050919050565b5f5481565b7f000000000000000000000000000000000000000000000000000000000000000081565b805f81036104fd576040517f85ea51af00000000000000000000000000000000000000000000000000000000815260040160405180910390fd5b7f000000000000000000000000000000000000000000000000000000000000000082111561058457817f00000000000000000000000000000000000000000000000000000000000000006040517fe910694600000000000000000000000000000000000000000000000000000000815260040161057b929190610976565b60405180910390fd5b5f60035f3373ffffffffffffffffffffffffffffffffffffffff1673ffffffffffffffffffffffffffffffffffffffff1681526020019081526020015f205490508083111561060c5782816040517fed7d0c40000000000000000000000000000000000000000000000000000000008152600401610603929190610976565b60405180910390fd5b82810360035f3373ffffffffffffffffffffffffffffffffffffffff1673ffffffffffffffffffffffffffffffffffffffff1681526020019081526020015f20819055508260025f828254039250508190555060015f815480929190600101919050555061067a3384610721565b3373ffffffffffffffffffffffffffffffffffffffff167fea4739a01bb01fe29fa71e248c4c05b41fa8dc1a1c62b9afe577470d1d2d2c278460035f3373ffffffffffffffffffffffffffffffffffffffff1673ffffffffffffffffffffffffffffffffffffffff1681526020019081526020015f20546040516106ff929190610976565b60405180910390a2505050565b6003602052805f5260405f205f915090505481565b5f8273ffffffffffffffffffffffffffffffffffffffff1682604051610746906109ca565b5f6040518083038185875af1925050503d805f8114610780576040519150601f19603f3d011682016040523d82523d5f602084013e610785565b606091505b50509050806107cd5782826040517f087f63950000000000000000000000000000000000000000000000000000000081526004016107c4929190610a39565b60405180910390fd5b505050565b5f819050919050565b6107e4816107d2565b82525050565b5f6020820190506107fd5f8301846107db565b92915050565b5f6060820190506108165f8301866107db565b61082360208301856107db565b61083060408301846107db565b949350505050565b5f5ffd5b5f73ffffffffffffffffffffffffffffffffffffffff82169050919050565b5f6108658261083c565b9050919050565b6108758161085b565b811461087f575f5ffd5b50565b5f813590506108908161086c565b92915050565b5f602082840312156108ab576108aa610838565b5b5f6108b884828501610882565b91505092915050565b6108ca816107d2565b81146108d4575f5ffd5b50565b5f813590506108e5816108c1565b92915050565b5f60208284031215610900576108ff610838565b5b5f61090d848285016108d7565b91505092915050565b7f4e487b71000000000000000000000000000000000000000000000000000000005f52601160045260245ffd5b5f61094d826107d2565b9150610958836107d2565b92508282019050808211156109705761096f610916565b5b92915050565b5f6040820190506109895f8301856107db565b61099660208301846107db565b9392505050565b5f81905092915050565b50565b5f6109b55f8361099d565b91506109c0826109a7565b5f82019050919050565b5f6109d4826109aa565b9150819050919050565b5f819050919050565b5f610a016109fc6109f78461083c565b6109de565b61083c565b9050919050565b5f610a12826109e7565b9050919050565b5f610a2382610a08565b9050919050565b610a3381610a19565b82525050565b5f604082019050610a4c5f830185610a2a565b610a5960208301846107db565b939250505056fea2646970667358221220c8ba8e92ef8051ec714c01041e050dfdae8521326a86795dfd423c6184760a2064736f6c634300081e0033",
					"opcodes": "PUSH1 0xC0 PUSH1 0x40 MSTORE CALLVALUE DUP1 ISZERO PUSH2 0xF JUMPI PUSH0 PUSH0 REVERT JUMPDEST POP PUSH1 0x40 MLOAD PUSH2 0xC85 CODESIZE SUB DUP1 PUSH2 0xC85 DUP4 CODECOPY DUP2 DUP2 ADD PUSH1 0x40 MSTORE DUP2 ADD SWAP1 PUSH2 0x31 SWAP2 SWAP1 PUSH2 0x10B JUMP JUMPDEST PUSH0 DUP3 SUB PUSH2 0x77 JUMPI PUSH0 PUSH0 PUSH1 0x40 MLOAD PUSH32 0x868D0F300000000000000000000000000000000000000000000000000000000 DUP2 MSTORE PUSH1 0x4 ADD PUSH2 0x6E SWAP3 SWAP2 SWAP1 PUSH2 0x18B JUMP JUMPDEST PUSH1 0x40 MLOAD DUP1 SWAP2 SUB SWAP1 REVERT JUMPDEST PUSH0 DUP2 SUB PUSH2 0xBD JUMPI PUSH0 PUSH0 PUSH1 0x40 MLOAD PUSH32 0xE910694600000000000000000000000000000000000000000000000000000000 DUP2 MSTORE PUSH1 0x4 ADD PUSH2 0xB4 SWAP3 SWAP2 SWAP1 PUSH2 0x18B JUMP JUMPDEST PUSH1 0x40 MLOAD DUP1 SWAP2 SUB SWAP1 REVERT JUMPDEST DUP2 PUSH1 0x80 DUP2 DUP2 MSTORE POP POP DUP1 PUSH1 0xA0 DUP2 DUP2 MSTORE POP POP POP POP PUSH2 0x1B2 JUMP JUMPDEST PUSH0 PUSH0 REVERT JUMPDEST PUSH0 DUP2 SWAP1 POP SWAP2 SWAP1 POP JUMP JUMPDEST PUSH2 0xEA DUP2 PUSH2 0xD8 JUMP JUMPDEST DUP2 EQ PUSH2 0xF4 JUMPI PUSH0 PUSH0 REVERT JUMPDEST POP JUMP JUMPDEST PUSH0 DUP2 MLOAD SWAP1 POP PUSH2 0x105 DUP2 PUSH2 0xE1 JUMP JUMPDEST SWAP3 SWAP2 POP POP JUMP JUMPDEST PUSH0 PUSH0 PUSH1 0x40 DUP4 DUP6 SUB SLT ISZERO PUSH2 0x121 JUMPI PUSH2 0x120 PUSH2 0xD4 JUMP JUMPDEST JUMPDEST PUSH0 PUSH2 0x12E DUP6 DUP3 DUP7 ADD PUSH2 0xF7 JUMP JUMPDEST SWAP3 POP POP PUSH1 0x20 PUSH2 0x13F DUP6 DUP3 DUP7 ADD PUSH2 0xF7 JUMP JUMPDEST SWAP2 POP POP SWAP3 POP SWAP3 SWAP1 POP JUMP JUMPDEST PUSH0 DUP2 SWAP1 POP SWAP2 SWAP1 POP JUMP JUMPDEST PUSH0 DUP2 SWAP1 POP SWAP2 SWAP1 POP JUMP JUMPDEST PUSH0 PUSH2 0x175 PUSH2 0x170 PUSH2 0x16B DUP5 PUSH2 0x149 JUMP JUMPDEST PUSH2 0x152 JUMP JUMPDEST PUSH2 0xD8 JUMP JUMPDEST SWAP1 POP SWAP2 SWAP1 POP JUMP JUMPDEST PUSH2 0x185 DUP2 PUSH2 0x15B JUMP JUMPDEST DUP3 MSTORE POP POP JUMP JUMPDEST PUSH0 PUSH1 0x40 DUP3 ADD SWAP1 POP PUSH2 0x19E PUSH0 DUP4 ADD DUP6 PUSH2 0x17C JUMP JUMPDEST PUSH2 0x1AB PUSH1 0x20 DUP4 ADD DUP5 PUSH2 0x17C JUMP JUMPDEST SWAP4 SWAP3 POP POP POP JUMP JUMPDEST PUSH1 0x80 MLOAD PUSH1 0xA0 MLOAD PUSH2 0xA96 PUSH2 0x1EF PUSH0 CODECOPY PUSH0 DUP2 DUP2 PUSH2 0x243 ADD MSTORE DUP2 DUP2 PUSH2 0x4FF ADD MSTORE PUSH2 0x528 ADD MSTORE PUSH0 DUP2 DUP2 PUSH2 0x2B2 ADD MSTORE DUP2 DUP2 PUSH2 0x2DB ADD MSTORE PUSH2 0x4A1 ADD MSTORE PUSH2 0xA96 PUSH0 RETURN INVALID PUSH1 0x80 PUSH1 0x40 MSTORE PUSH1 0x4 CALLDATASIZE LT PUSH2 0x94 JUMPI PUSH0 CALLDATALOAD PUSH1 0xE0 SHR DUP1 PUSH4 0x6BAF38CA GT PUSH2 0x58 JUMPI DUP1 PUSH4 0x6BAF38CA EQ PUSH2 0x14D JUMPI DUP1 PUSH4 0xA9CB0CA0 EQ PUSH2 0x189 JUMPI DUP1 PUSH4 0xC8DDEC1B EQ PUSH2 0x1B3 JUMPI DUP1 PUSH4 0xE8B1298F EQ PUSH2 0x1DD JUMPI DUP1 PUSH4 0xFEE88B61 EQ PUSH2 0x205 JUMPI PUSH2 0x95 JUMP JUMPDEST DUP1 PUSH4 0x15A68416 EQ PUSH2 0x99 JUMPI DUP1 PUSH4 0x3D922F90 EQ PUSH2 0xC3 JUMPI DUP1 PUSH4 0x47572014 EQ PUSH2 0xCD JUMPI DUP1 PUSH4 0x499BBADA EQ PUSH2 0xF7 JUMPI DUP1 PUSH4 0x566FEA9D EQ PUSH2 0x121 JUMPI PUSH2 0x95 JUMP JUMPDEST JUMPDEST PUSH0 PUSH0 REVERT JUMPDEST CALLVALUE DUP1 ISZERO PUSH2 0xA4 JUMPI PUSH0 PUSH0 REVERT JUMPDEST POP PUSH2 0xAD PUSH2 0x241 JUMP JUMPDEST PUSH1 0x40 MLOAD PUSH2 0xBA SWAP2 SWAP1 PUSH2 0x7EA JUMP JUMPDEST PUSH1 0x40 MLOAD DUP1 SWAP2 SUB SWAP1 RETURN JUMPDEST PUSH2 0xCB PUSH2 0x265 JUMP JUMPDEST STOP JUMPDEST CALLVALUE DUP1 ISZERO PUSH2 0xD8 JUMPI PUSH0 PUSH0 REVERT JUMPDEST POP PUSH2 0xE1 PUSH2 0x432 JUMP JUMPDEST PUSH1 0x40 MLOAD PUSH2 0xEE SWAP2 SWAP1 PUSH2 0x7EA JUMP JUMPDEST PUSH1 0x40 MLOAD DUP1 SWAP2 SUB SWAP1 RETURN JUMPDEST CALLVALUE DUP1 ISZERO PUSH2 0x102 JUMPI PUSH0 PUSH0 REVERT JUMPDEST POP PUSH2 0x10B PUSH2 0x438 JUMP JUMPDEST PUSH1 0x40 MLOAD PUSH2 0x118 SWAP2 SWAP1 PUSH2 0x7EA JUMP JUMPDEST PUSH1 0x40 MLOAD DUP1 SWAP2 SUB SWAP1 RETURN JUMPDEST CALLVALUE DUP1 ISZERO PUSH2 0x12C JUMPI PUSH0 PUSH0 REVERT JUMPDEST POP PUSH2 0x135 PUSH2 0x43E JUMP JUMPDEST PUSH1 0x40 MLOAD PUSH2 0x144 SWAP4 SWAP3 SWAP2 SWAP1 PUSH2 0x803 JUMP JUMPDEST PUSH1 0x40 MLOAD DUP1 SWAP2 SUB SWAP1 RETURN JUMPDEST CALLVALUE DUP1 ISZERO PUSH2 0x158 JUMPI PUSH0 PUSH0 REVERT JUMPDEST POP PUSH2 0x173 PUSH1 0x4 DUP1 CALLDATASIZE SUB DUP2 ADD SWAP1 PUSH2 0x16E SWAP2 SWAP1 PUSH2 0x896 JUMP JUMPDEST PUSH2 0x454 JUMP JUMPDEST PUSH1 0x40 MLOAD PUSH2 0x180 SWAP2 SWAP1 PUSH2 0x7EA JUMP JUMPDEST PUSH1 0x40 MLOAD DUP1 SWAP2 SUB SWAP1 RETURN JUMPDEST CALLVALUE DUP1 ISZERO PUSH2 0x194 JUMPI PUSH0 PUSH0 REVERT JUMPDEST POP PUSH2 0x19D PUSH2 0x49A JUMP JUMPDEST PUSH1 0x40 MLOAD PUSH2 0x1AA SWAP2 SWAP1 PUSH2 0x7EA JUMP JUMPDEST PUSH1 0x40 MLOAD DUP1 SWAP2 SUB SWAP1 RETURN JUMPDEST CALLVALUE DUP1 ISZERO PUSH2 0x1BE JUMPI PUSH0 PUSH0 REVERT JUMPDEST POP PUSH2 0x1C7 PUSH2 0x49F JUMP JUMPDEST PUSH1 0x40 MLOAD PUSH2 0x1D4 SWAP2 SWAP1 PUSH2 0x7EA JUMP JUMPDEST PUSH1 0x40 MLOAD DUP1 SWAP2 SUB SWAP1 RETURN JUMPDEST CALLVALUE DUP1 ISZERO PUSH2 0x1E8 JUMPI PUSH0 PUSH0 REVERT JUMPDEST POP PUSH2 0x203 PUSH1 0x4 DUP1 CALLDATASIZE SUB DUP2 ADD SWAP1 PUSH2 0x1FE SWAP2 SWAP1 PUSH2 0x8EB JUMP JUMPDEST PUSH2 0x4C3 JUMP JUMPDEST STOP JUMPDEST CALLVALUE DUP1 ISZERO PUSH2 0x210 JUMPI PUSH0 PUSH0 REVERT JUMPDEST POP PUSH2 0x22B PUSH1 0x4 DUP1 CALLDATASIZE SUB DUP2 ADD SWAP1 PUSH2 0x226 SWAP2 SWAP1 PUSH2 0x896 JUMP JUMPDEST PUSH2 0x70C JUMP JUMPDEST PUSH1 0x40 MLOAD PUSH2 0x238 SWAP2 SWAP1 PUSH2 0x7EA JUMP JUMPDEST PUSH1 0x40 MLOAD DUP1 SWAP2 SUB SWAP1 RETURN JUMPDEST PUSH32 0x0 DUP2 JUMP JUMPDEST CALLVALUE PUSH0 DUP2 SUB PUSH2 0x29F JUMPI PUSH1 0x40 MLOAD PUSH32 0x85EA51AF00000000000000000000000000000000000000000000000000000000 DUP2 MSTORE PUSH1 0x4 ADD PUSH1 0x40 MLOAD DUP1 SWAP2 SUB SWAP1 REVERT JUMPDEST PUSH0 CALLVALUE PUSH1 0x2 SLOAD PUSH2 0x2AE SWAP2 SWAP1 PUSH2 0x943 JUMP JUMPDEST SWAP1 POP PUSH32 0x0 DUP2 GT ISZERO PUSH2 0x337 JUMPI DUP1 PUSH32 0x0 PUSH1 0x40 MLOAD PUSH32 0x868D0F300000000000000000000000000000000000000000000000000000000 DUP2 MSTORE PUSH1 0x4 ADD PUSH2 0x32E SWAP3 SWAP2 SWAP1 PUSH2 0x976 JUMP JUMPDEST PUSH1 0x40 MLOAD DUP1 SWAP2 SUB SWAP1 REVERT JUMPDEST CALLVALUE PUSH1 0x3 PUSH0 CALLER PUSH20 0xFFFFFFFFFFFFFFFFFFFFFFFFFFFFFFFFFFFFFFFF AND PUSH20 0xFFFFFFFFFFFFFFFFFFFFFFFFFFFFFFFFFFFFFFFF AND DUP2 MSTORE PUSH1 0x20 ADD SWAP1 DUP2 MSTORE PUSH1 0x20 ADD PUSH0 KECCAK256 PUSH0 DUP3 DUP3 SLOAD PUSH2 0x383 SWAP2 SWAP1 PUSH2 0x943 JUMP JUMPDEST SWAP3 POP POP DUP2 SWAP1 SSTORE POP DUP1 PUSH1 0x2 DUP2 SWAP1 SSTORE POP PUSH0 PUSH0 DUP2 SLOAD DUP1 SWAP3 SWAP2 SWAP1 PUSH1 0x1 ADD SWAP2 SWAP1 POP SSTORE POP CALLER PUSH20 0xFFFFFFFFFFFFFFFFFFFFFFFFFFFFFFFFFFFFFFFF AND PUSH32 0xEA84AB1B96A4DF052463C82C30614A8F1E466190B2CBA7BF294B6FB8A77B9B20 CALLVALUE PUSH1 0x3 PUSH0 CALLER PUSH20 0xFFFFFFFFFFFFFFFFFFFFFFFFFFFFFFFFFFFFFFFF AND PUSH20 0xFFFFFFFFFFFFFFFFFFFFFFFFFFFFFFFFFFFFFFFF AND DUP2 MSTORE PUSH1 0x20 ADD SWAP1 DUP2 MSTORE PUSH1 0x20 ADD PUSH0 KECCAK256 SLOAD PUSH1 0x40 MLOAD PUSH2 0x426 SWAP3 SWAP2 SWAP1 PUSH2 0x976 JUMP JUMPDEST PUSH1 0x40 MLOAD DUP1 SWAP2 SUB SWAP1 LOG2 POP POP JUMP JUMPDEST PUSH1 0x2 SLOAD DUP2 JUMP JUMPDEST PUSH1 0x1 SLOAD DUP2 JUMP JUMPDEST PUSH0 PUSH0 PUSH0 PUSH1 0x2 SLOAD PUSH0 SLOAD PUSH1 0x1 SLOAD SWAP3 POP SWAP3 POP SWAP3 POP SWAP1 SWAP2 SWAP3 JUMP JUMPDEST PUSH0 PUSH1 0x3 PUSH0 DUP4 PUSH20 0xFFFFFFFFFFFFFFFFFFFFFFFFFFFFFFFFFFFFFFFF AND PUSH20 0xFFFFFFFFFFFFFFFFFFFFFFFFFFFFFFFFFFFFFFFF AND DUP2 MSTORE PUSH1 0x20 ADD SWAP1 DUP2 MSTORE PUSH1 0x20 ADD PUSH0 KECCAK256 SLOAD SWAP1 POP SWAP2 SWAP1 POP JUMP JUMPDEST PUSH0 SLOAD DUP2 JUMP JUMPDEST PUSH32 0x0 DUP2 JUMP JUMPDEST DUP1 PUSH0 DUP2 SUB PUSH2 0x4FD JUMPI PUSH1 0x40 MLOAD PUSH32 0x85EA51AF00000000000000000000000000000000000000000000000000000000 DUP2 MSTORE PUSH1 0x4 ADD PUSH1 0x40 MLOAD DUP1 SWAP2 SUB SWAP1 REVERT JUMPDEST PUSH32 0x0 DUP3 GT ISZERO PUSH2 0x584 JUMPI DUP2 PUSH32 0x0 PUSH1 0x40 MLOAD PUSH32 0xE910694600000000000000000000000000000000000000000000000000000000 DUP2 MSTORE PUSH1 0x4 ADD PUSH2 0x57B SWAP3 SWAP2 SWAP1 PUSH2 0x976 JUMP JUMPDEST PUSH1 0x40 MLOAD DUP1 SWAP2 SUB SWAP1 REVERT JUMPDEST PUSH0 PUSH1 0x3 PUSH0 CALLER PUSH20 0xFFFFFFFFFFFFFFFFFFFFFFFFFFFFFFFFFFFFFFFF AND PUSH20 0xFFFFFFFFFFFFFFFFFFFFFFFFFFFFFFFFFFFFFFFF AND DUP2 MSTORE PUSH1 0x20 ADD SWAP1 DUP2 MSTORE PUSH1 0x20 ADD PUSH0 KECCAK256 SLOAD SWAP1 POP DUP1 DUP4 GT ISZERO PUSH2 0x60C JUMPI DUP3 DUP2 PUSH1 0x40 MLOAD PUSH32 0xED7D0C4000000000000000000000000000000000000000000000000000000000 DUP2 MSTORE PUSH1 0x4 ADD PUSH2 0x603 SWAP3 SWAP2 SWAP1 PUSH2 0x976 JUMP JUMPDEST PUSH1 0x40 MLOAD DUP1 SWAP2 SUB SWAP1 REVERT JUMPDEST DUP3 DUP2 SUB PUSH1 0x3 PUSH0 CALLER PUSH20 0xFFFFFFFFFFFFFFFFFFFFFFFFFFFFFFFFFFFFFFFF AND PUSH20 0xFFFFFFFFFFFFFFFFFFFFFFFFFFFFFFFFFFFFFFFF AND DUP2 MSTORE PUSH1 0x20 ADD SWAP1 DUP2 MSTORE PUSH1 0x20 ADD PUSH0 KECCAK256 DUP2 SWAP1 SSTORE POP DUP3 PUSH1 0x2 PUSH0 DUP3 DUP3 SLOAD SUB SWAP3 POP POP DUP2 SWAP1 SSTORE POP PUSH1 0x1 PUSH0 DUP2 SLOAD DUP1 SWAP3 SWAP2 SWAP1 PUSH1 0x1 ADD SWAP2 SWAP1 POP SSTORE POP PUSH2 0x67A CALLER DUP5 PUSH2 0x721 JUMP JUMPDEST CALLER PUSH20 0xFFFFFFFFFFFFFFFFFFFFFFFFFFFFFFFFFFFFFFFF AND PUSH32 0xEA4739A01BB01FE29FA71E248C4C05B41FA8DC1A1C62B9AFE577470D1D2D2C27 DUP5 PUSH1 0x3 PUSH0 CALLER PUSH20 0xFFFFFFFFFFFFFFFFFFFFFFFFFFFFFFFFFFFFFFFF AND PUSH20 0xFFFFFFFFFFFFFFFFFFFFFFFFFFFFFFFFFFFFFFFF AND DUP2 MSTORE PUSH1 0x20 ADD SWAP1 DUP2 MSTORE PUSH1 0x20 ADD PUSH0 KECCAK256 SLOAD PUSH1 0x40 MLOAD PUSH2 0x6FF SWAP3 SWAP2 SWAP1 PUSH2 0x976 JUMP JUMPDEST PUSH1 0x40 MLOAD DUP1 SWAP2 SUB SWAP1 LOG2 POP POP POP JUMP JUMPDEST PUSH1 0x3 PUSH1 0x20 MSTORE DUP1 PUSH0 MSTORE PUSH1 0x40 PUSH0 KECCAK256 PUSH0 SWAP2 POP SWAP1 POP SLOAD DUP2 JUMP JUMPDEST PUSH0 DUP3 PUSH20 0xFFFFFFFFFFFFFFFFFFFFFFFFFFFFFFFFFFFFFFFF AND DUP3 PUSH1 0x40 MLOAD PUSH2 0x746 SWAP1 PUSH2 0x9CA JUMP JUMPDEST PUSH0 PUSH1 0x40 MLOAD DUP1 DUP4 SUB DUP2 DUP6 DUP8 GAS CALL SWAP3 POP POP POP RETURNDATASIZE DUP1 PUSH0 DUP2 EQ PUSH2 0x780 JUMPI PUSH1 0x40 MLOAD SWAP2 POP PUSH1 0x1F NOT PUSH1 0x3F RETURNDATASIZE ADD AND DUP3 ADD PUSH1 0x40 MSTORE RETURNDATASIZE DUP3 MSTORE RETURNDATASIZE PUSH0 PUSH1 0x20 DUP5 ADD RETURNDATACOPY PUSH2 0x785 JUMP JUMPDEST PUSH1 0x60 SWAP2 POP JUMPDEST POP POP SWAP1 POP DUP1 PUSH2 0x7CD JUMPI DUP3 DUP3 PUSH1 0x40 MLOAD PUSH32 0x87F639500000000000000000000000000000000000000000000000000000000 DUP2 MSTORE PUSH1 0x4 ADD PUSH2 0x7C4 SWAP3 SWAP2 SWAP1 PUSH2 0xA39 JUMP JUMPDEST PUSH1 0x40 MLOAD DUP1 SWAP2 SUB SWAP1 REVERT JUMPDEST POP POP POP JUMP JUMPDEST PUSH0 DUP2 SWAP1 POP SWAP2 SWAP1 POP JUMP JUMPDEST PUSH2 0x7E4 DUP2 PUSH2 0x7D2 JUMP JUMPDEST DUP3 MSTORE POP POP JUMP JUMPDEST PUSH0 PUSH1 0x20 DUP3 ADD SWAP1 POP PUSH2 0x7FD PUSH0 DUP4 ADD DUP5 PUSH2 0x7DB JUMP JUMPDEST SWAP3 SWAP2 POP POP JUMP JUMPDEST PUSH0 PUSH1 0x60 DUP3 ADD SWAP1 POP PUSH2 0x816 PUSH0 DUP4 ADD DUP7 PUSH2 0x7DB JUMP JUMPDEST PUSH2 0x823 PUSH1 0x20 DUP4 ADD DUP6 PUSH2 0x7DB JUMP JUMPDEST PUSH2 0x830 PUSH1 0x40 DUP4 ADD DUP5 PUSH2 0x7DB JUMP JUMPDEST SWAP5 SWAP4 POP POP POP POP JUMP JUMPDEST PUSH0 PUSH0 REVERT JUMPDEST PUSH0 PUSH20 0xFFFFFFFFFFFFFFFFFFFFFFFFFFFFFFFFFFFFFFFF DUP3 AND SWAP1 POP SWAP2 SWAP1 POP JUMP JUMPDEST PUSH0 PUSH2 0x865 DUP3 PUSH2 0x83C JUMP JUMPDEST SWAP1 POP SWAP2 SWAP1 POP JUMP JUMPDEST PUSH2 0x875 DUP2 PUSH2 0x85B JUMP JUMPDEST DUP2 EQ PUSH2 0x87F JUMPI PUSH0 PUSH0 REVERT JUMPDEST POP JUMP JUMPDEST PUSH0 DUP2 CALLDATALOAD SWAP1 POP PUSH2 0x890 DUP2 PUSH2 0x86C JUMP JUMPDEST SWAP3 SWAP2 POP POP JUMP JUMPDEST PUSH0 PUSH1 0x20 DUP3 DUP5 SUB SLT ISZERO PUSH2 0x8AB JUMPI PUSH2 0x8AA PUSH2 0x838 JUMP JUMPDEST JUMPDEST PUSH0 PUSH2 0x8B8 DUP5 DUP3 DUP6 ADD PUSH2 0x882 JUMP JUMPDEST SWAP2 POP POP SWAP3 SWAP2 POP POP JUMP JUMPDEST PUSH2 0x8CA DUP2 PUSH2 0x7D2 JUMP JUMPDEST DUP2 EQ PUSH2 0x8D4 JUMPI PUSH0 PUSH0 REVERT JUMPDEST POP JUMP JUMPDEST PUSH0 DUP2 CALLDATALOAD SWAP1 POP PUSH2 0x8E5 DUP2 PUSH2 0x8C1 JUMP JUMPDEST SWAP3 SWAP2 POP POP JUMP JUMPDEST PUSH0 PUSH1 0x20 DUP3 DUP5 SUB SLT ISZERO PUSH2 0x900 JUMPI PUSH2 0x8FF PUSH2 0x838 JUMP JUMPDEST JUMPDEST PUSH0 PUSH2 0x90D DUP5 DUP3 DUP6 ADD PUSH2 0x8D7 JUMP JUMPDEST SWAP2 POP POP SWAP3 SWAP2 POP POP JUMP JUMPDEST PUSH32 0x4E487B7100000000000000000000000000000000000000000000000000000000 PUSH0 MSTORE PUSH1 0x11 PUSH1 0x4 MSTORE PUSH1 0x24 PUSH0 REVERT JUMPDEST PUSH0 PUSH2 0x94D DUP3 PUSH2 0x7D2 JUMP JUMPDEST SWAP2 POP PUSH2 0x958 DUP4 PUSH2 0x7D2 JUMP JUMPDEST SWAP3 POP DUP3 DUP3 ADD SWAP1 POP DUP1 DUP3 GT ISZERO PUSH2 0x970 JUMPI PUSH2 0x96F PUSH2 0x916 JUMP JUMPDEST JUMPDEST SWAP3 SWAP2 POP POP JUMP JUMPDEST PUSH0 PUSH1 0x40 DUP3 ADD SWAP1 POP PUSH2 0x989 PUSH0 DUP4 ADD DUP6 PUSH2 0x7DB JUMP JUMPDEST PUSH2 0x996 PUSH1 0x20 DUP4 ADD DUP5 PUSH2 0x7DB JUMP JUMPDEST SWAP4 SWAP3 POP POP POP JUMP JUMPDEST PUSH0 DUP2 SWAP1 POP SWAP3 SWAP2 POP POP JUMP JUMPDEST POP JUMP JUMPDEST PUSH0 PUSH2 0x9B5 PUSH0 DUP4 PUSH2 0x99D JUMP JUMPDEST SWAP2 POP PUSH2 0x9C0 DUP3 PUSH2 0x9A7 JUMP JUMPDEST PUSH0 DUP3 ADD SWAP1 POP SWAP2 SWAP1 POP JUMP JUMPDEST PUSH0 PUSH2 0x9D4 DUP3 PUSH2 0x9AA JUMP JUMPDEST SWAP2 POP DUP2 SWAP1 POP SWAP2 SWAP1 POP JUMP JUMPDEST PUSH0 DUP2 SWAP1 POP SWAP2 SWAP1 POP JUMP JUMPDEST PUSH0 PUSH2 0xA01 PUSH2 0x9FC PUSH2 0x9F7 DUP5 PUSH2 0x83C JUMP JUMPDEST PUSH2 0x9DE JUMP JUMPDEST PUSH2 0x83C JUMP JUMPDEST SWAP1 POP SWAP2 SWAP1 POP JUMP JUMPDEST PUSH0 PUSH2 0xA12 DUP3 PUSH2 0x9E7 JUMP JUMPDEST SWAP1 POP SWAP2 SWAP1 POP JUMP JUMPDEST PUSH0 PUSH2 0xA23 DUP3 PUSH2 0xA08 JUMP JUMPDEST SWAP1 POP SWAP2 SWAP1 POP JUMP JUMPDEST PUSH2 0xA33 DUP2 PUSH2 0xA19 JUMP JUMPDEST DUP3 MSTORE POP POP JUMP JUMPDEST PUSH0 PUSH1 0x40 DUP3 ADD SWAP1 POP PUSH2 0xA4C PUSH0 DUP4 ADD DUP6 PUSH2 0xA2A JUMP JUMPDEST PUSH2 0xA59 PUSH1 0x20 DUP4 ADD DUP5 PUSH2 0x7DB JUMP JUMPDEST SWAP4 SWAP3 POP POP POP JUMP INVALID LOG2 PUSH5 0x6970667358 0x22 SLT KECCAK256 0xC8 0xBA DUP15 SWAP3 0xEF DUP1 MLOAD EOFCREATE 0x71 0x4C ADD DIV 0x1E SDIV 0xD REVERT 0xAE DUP6 0x21 ORIGIN PUSH11 0x86795DFD423C6184760A20 PUSH5 0x736F6C6343 STOP ADDMOD 0x1E STOP CALLER "
				},
				"gasEstimates": {
					"creation": {
						"codeDepositCost": "542000",
						"executionCost": "infinite",
						"totalCost": "infinite"
					},
					"external": {
						"": "199",
						"boveda(address)": "2890",
						"conteoDepositos()": "2446",
						"conteoRetiros()": "2492",
						"depositar()": "infinite",
						"estadisticas()": "infinite",
						"limiteBanco()": "infinite",
						"retirar(uint256)": "infinite",
						"saldoBancoTotal()": "2470",
						"saldoDe(address)": "2829",
						"topeRetiroPorTx()": "infinite"
					},
					"internal": {
						"_transferenciaNativaSegura(address payable,uint256)": "infinite"
					}
				},
				"methodIdentifiers": {
					"boveda(address)": "fee88b61",
					"conteoDepositos()": "a9cb0ca0",
					"conteoRetiros()": "499bbada",
					"depositar()": "3d922f90",
					"estadisticas()": "566fea9d",
					"limiteBanco()": "c8ddec1b",
					"retirar(uint256)": "e8b1298f",
					"saldoBancoTotal()": "47572014",
					"saldoDe(address)": "6baf38ca",
					"topeRetiroPorTx()": "15a68416"
				}
			},
			"storageLayout": {
				"storage": [
					{
						"astId": 60,
						"contract": "contracts/TP2_.sol:KipuBank",
						"label": "conteoDepositos",
						"offset": 0,
						"slot": "0",
						"type": "t_uint256"
					},
					{
						"astId": 63,
						"contract": "contracts/TP2_.sol:KipuBank",
						"label": "conteoRetiros",
						"offset": 0,
						"slot": "1",
						"type": "t_uint256"
					},
					{
						"astId": 66,
						"contract": "contracts/TP2_.sol:KipuBank",
						"label": "saldoBancoTotal",
						"offset": 0,
						"slot": "2",
						"type": "t_uint256"
					},
					{
						"astId": 71,
						"contract": "contracts/TP2_.sol:KipuBank",
						"label": "boveda",
						"offset": 0,
						"slot": "3",
						"type": "t_mapping(t_address,t_uint256)"
					}
				],
				"types": {
					"t_address": {
						"encoding": "inplace",
						"label": "address",
						"numberOfBytes": "20"
					},
					"t_mapping(t_address,t_uint256)": {
						"encoding": "mapping",
						"key": "t_address",
						"label": "mapping(address => uint256)",
						"numberOfBytes": "32",
						"value": "t_uint256"
					},
					"t_uint256": {
						"encoding": "inplace",
						"label": "uint256",
						"numberOfBytes": "32"
					}
				}
			},
			"userdoc": {
				"errors": {
					"BalanceInsuficiente(uint256,uint256)": [
						{
							"notice": "El usuario no tiene balance suficiente para retirar."
						}
					],
					"MontoCero()": [
						{
							"notice": "El monto provisto es cero (no tiene sentido operar con 0)."
						}
					],
					"RetiroSobreTope(uint256,uint256)": [
						{
							"notice": "Se excede el tope por transacción para retiros."
						}
					],
					"TopeBancoExcedido(uint256,uint256)": [
						{
							"notice": "El depósito total superaría el límite global del banco."
						}
					],
					"TransferenciaNativaFallida(address,uint256)": [
						{
							"notice": "Falló el envío de ETH nativo."
						}
					]
				},
				"events": {
					"Depositado(address,uint256,uint256)": {
						"notice": "Se emite en cada depósito exitoso."
					},
					"Retirado(address,uint256,uint256)": {
						"notice": "Se emite en cada retiro exitoso."
					}
				},
				"kind": "user",
				"methods": {
					"boveda(address)": {
						"notice": "Bóveda personal por usuario: cuánto ETH tiene cada address."
					},
					"constructor": {
						"notice": "Configura el límite global y el tope por retiro."
					},
					"conteoDepositos()": {
						"notice": "Cantidad total de depósitos realizados (métrica)."
					},
					"conteoRetiros()": {
						"notice": "Cantidad total de retiros realizados (métrica)."
					},
					"depositar()": {
						"notice": "Deposita ETH en tu bóveda personal."
					},
					"estadisticas()": {
						"notice": "Retorna métricas del contrato."
					},
					"limiteBanco()": {
						"notice": "Límite global de depósitos (suma de todas las bóvedas)."
					},
					"retirar(uint256)": {
						"notice": "Retira un monto de tu bóveda, respetando el tope por transacción."
					},
					"saldoBancoTotal()": {
						"notice": "Suma de todos los balances (para controlar el límite global)."
					},
					"saldoDe(address)": {
						"notice": "Devuelve el balance de la bóveda del usuario."
					},
					"topeRetiroPorTx()": {
						"notice": "Tope máximo permitido por transacción de retiro."
					}
				},
				"notice": "Bóvedas personales de ETH con: límite global de depósitos (limiteBanco) y         tope por retiro por transacción (topeRetiroPorTx). Emite eventos,         lleva contadores, usa errores personalizados y patrón CEI.",
				"version": 1
			}
		}
	}
}