{
	"data": {
		"bytecode": {
			"linkReferences": {},
			"object": "60c060405234801561000f575f5ffd5b50604051610c85380380610c858339818101604052810190610031919061010b565b5f8203610077575f5f6040517f0868d0f300000000000000000000000000000000000000000000000000000000815260040161006e92919061018b565b60405180910390fd5b5f81036100bd575f5f6040517fe91069460000000000000000000000000000000000000000000000000000000081526004016100b492919061018b565b60405180910390fd5b81608081815250508060a0818152505050506101b2565b5f5ffd5b5f819050919050565b6100ea816100d8565b81146100f4575f5ffd5b50565b5f81519050610105816100e1565b92915050565b5f5f60408385031215610121576101206100d4565b5b5f61012e858286016100f7565b925050602061013f858286016100f7565b9150509250929050565b5f819050919050565b5f819050919050565b5f61017561017061016b84610149565b610152565b6100d8565b9050919050565b6101858161015b565b82525050565b5f60408201905061019e5f83018561017c565b6101ab602083018461017c565b9392505050565b60805160a051610a966101ef5f395f8181610243015281816104ff015261052801525f81816102b2015281816102db01526104a10152610a965ff3fe608060405260043610610094575f3560e01c80636baf38ca116100585780636baf38ca1461014d578063a9cb0ca014610189578063c8ddec1b146101b3578063e8b1298f146101dd578063fee88b611461020557610095565b806315a68416146100995780633d922f90146100c357806347572014146100cd578063499bbada146100f7578063566fea9d1461012157610095565b5b5f5ffd5b3480156100a4575f5ffd5b506100ad610241565b6040516100ba91906107ea565b60405180910390f35b6100cb610265565b005b3480156100d8575f5ffd5b506100e1610432565b6040516100ee91906107ea565b60405180910390f35b348015610102575f5ffd5b5061010b610438565b60405161011891906107ea565b60405180910390f35b34801561012c575f5ffd5b5061013561043e565b60405161014493929190610803565b60405180910390f35b348015610158575f5ffd5b50610173600480360381019061016e9190610896565b610454565b60405161018091906107ea565b60405180910390f35b348015610194575f5ffd5b5061019d61049a565b6040516101aa91906107ea565b60405180910390f35b3480156101be575f5ffd5b506101c761049f565b6040516101d491906107ea565b60405180910390f35b3480156101e8575f5ffd5b5061020360048036038101906101fe91906108eb565b6104c3565b005b348015610210575f5ffd5b5061022b60048036038101906102269190610896565b61070c565b60405161023891906107ea565b60405180910390f35b7f000000000000000000000000000000000000000000000000000000000000000081565b345f810361029f576040517f85ea51af00000000000000000000000000000000000000000000000000000000815260040160405180910390fd5b5f346002546102ae9190610943565b90507f000000000000000000000000000000000000000000000000000000000000000081111561033757807f00000000000000000000000000000000000000000000000000000000000000006040517f0868d0f300000000000000000000000000000000000000000000000000000000815260040161032e929190610976565b60405180910390fd5b3460035f3373ffffffffffffffffffffffffffffffffffffffff1673ffffffffffffffffffffffffffffffffffffffff1681526020019081526020015f205f8282546103839190610943565b92505081905550806002819055505f5f81548092919060010191905055503373ffffffffffffffffffffffffffffffffffffffff167fea84ab1b96a4df052463c82c30614a8f1e466190b2cba7bf294b6fb8a77b9b203460035f3373ffffffffffffffffffffffffffffffffffffffff1673ffffffffffffffffffffffffffffffffffffffff1681526020019081526020015f2054604051610426929190610976565b60405180910390a25050565b60025481565b60015481565b5f5f5f6002545f54600154925092509250909192565b5f60035f8373ffffffffffffffffffffffffffffffffffffffff1673ffffffffffffffffffffffffffffffffffffffff1681526020019081526020015f20549050919050565b5f5481565b7f000000000000000000000000000000000000000000000000000000000000000081565b805f81036104fd576040517f85ea51af00000000000000000000000000000000000000000000000000000000815260040160405180910390fd5b7f000000000000000000000000000000000000000000000000000000000000000082111561058457817f00000000000000000000000000000000000000000000000000000000000000006040517fe910694600000000000000000000000000000000000000000000000000000000815260040161057b929190610976565b60405180910390fd5b5f60035f3373ffffffffffffffffffffffffffffffffffffffff1673ffffffffffffffffffffffffffffffffffffffff1681526020019081526020015f205490508083111561060c5782816040517fed7d0c40000000000000000000000000000000000000000000000000000000008152600401610603929190610976565b60405180910390fd5b82810360035f3373ffffffffffffffffffffffffffffffffffffffff1673ffffffffffffffffffffffffffffffffffffffff1681526020019081526020015f20819055508260025f828254039250508190555060015f815480929190600101919050555061067a3384610721565b3373ffffffffffffffffffffffffffffffffffffffff167fea4739a01bb01fe29fa71e248c4c05b41fa8dc1a1c62b9afe577470d1d2d2c278460035f3373ffffffffffffffffffffffffffffffffffffffff1673ffffffffffffffffffffffffffffffffffffffff1681526020019081526020015f20546040516106ff929190610976565b60405180910390a2505050565b6003602052805f5260405f205f915090505481565b5f8273ffffffffffffffffffffffffffffffffffffffff1682604051610746906109ca565b5f6040518083038185875af1925050503d805f8114610780576040519150601f19603f3d011682016040523d82523d5f602084013e610785565b606091505b50509050806107cd5782826040517f087f63950000000000000000000000000000000000000000000000000000000081526004016107c4929190610a39565b60405180910390fd5b505050565b5f819050919050565b6107e4816107d2565b82525050565b5f6020820190506107fd5f8301846107db565b92915050565b5f6060820190506108165f8301866107db565b61082360208301856107db565b61083060408301846107db565b949350505050565b5f5ffd5b5f73ffffffffffffffffffffffffffffffffffffffff82169050919050565b5f6108658261083c565b9050919050565b6108758161085b565b811461087f575f5ffd5b50565b5f813590506108908161086c565b92915050565b5f602082840312156108ab576108aa610838565b5b5f6108b884828501610882565b91505092915050565b6108ca816107d2565b81146108d4575f5ffd5b50565b5f813590506108e5816108c1565b92915050565b5f60208284031215610900576108ff610838565b5b5f61090d848285016108d7565b91505092915050565b7f4e487b71000000000000000000000000000000000000000000000000000000005f52601160045260245ffd5b5f61094d826107d2565b9150610958836107d2565b92508282019050808211156109705761096f610916565b5b92915050565b5f6040820190506109895f8301856107db565b61099660208301846107db565b9392505050565b5f81905092915050565b50565b5f6109b55f8361099d565b91506109c0826109a7565b5f82019050919050565b5f6109d4826109aa565b9150819050919050565b5f819050919050565b5f610a016109fc6109f78461083c565b6109de565b61083c565b9050919050565b5f610a12826109e7565b9050919050565b5f610a2382610a08565b9050919050565b610a3381610a19565b82525050565b5f604082019050610a4c5f830185610a2a565b610a5960208301846107db565b939250505056fea2646970667358221220c8ba8e92ef8051ec714c01041e050dfdae8521326a86795dfd423c6184760a2064736f6c634300081e0033",
			"opcodes": "PUSH1 0xC0 PUSH1 0x40 MSTORE CALLVALUE DUP1 ISZERO PUSH2 0xF JUMPI PUSH0 PUSH0 REVERT JUMPDEST POP PUSH1 0x40 MLOAD PUSH2 0xC85 CODESIZE SUB DUP1 PUSH2 0xC85 DUP4 CODECOPY DUP2 DUP2 ADD PUSH1 0x40 MSTORE DUP2 ADD SWAP1 PUSH2 0x31 SWAP2 SWAP1 PUSH2 0x10B JUMP JUMPDEST PUSH0 DUP3 SUB PUSH2 0x77 JUMPI PUSH0 PUSH0 PUSH1 0x40 MLOAD PUSH32 0x868D0F300000000000000000000000000000000000000000000000000000000 DUP2 MSTORE PUSH1 0x4 ADD PUSH2 0x6E SWAP3 SWAP2 SWAP1 PUSH2 0x18B JUMP JUMPDEST PUSH1 0x40 MLOAD DUP1 SWAP2 SUB SWAP1 REVERT JUMPDEST PUSH0 DUP2 SUB PUSH2 0xBD JUMPI PUSH0 PUSH0 PUSH1 0x40 MLOAD PUSH32 0xE910694600000000000000000000000000000000000000000000000000000000 DUP2 MSTORE PUSH1 0x4 ADD PUSH2 0xB4 SWAP3 SWAP2 SWAP1 PUSH2 0x18B JUMP JUMPDEST PUSH1 0x40 MLOAD DUP1 SWAP2 SUB SWAP1 REVERT JUMPDEST DUP2 PUSH1 0x80 DUP2 DUP2 MSTORE POP POP DUP1 PUSH1 0xA0 DUP2 DUP2 MSTORE POP POP POP POP PUSH2 0x1B2 JUMP JUMPDEST PUSH0 PUSH0 REVERT JUMPDEST PUSH0 DUP2 SWAP1 POP SWAP2 SWAP1 POP JUMP JUMPDEST PUSH2 0xEA DUP2 PUSH2 0xD8 JUMP JUMPDEST DUP2 EQ PUSH2 0xF4 JUMPI PUSH0 PUSH0 REVERT JUMPDEST POP JUMP JUMPDEST PUSH0 DUP2 MLOAD SWAP1 POP PUSH2 0x105 DUP2 PUSH2 0xE1 JUMP JUMPDEST SWAP3 SWAP2 POP POP JUMP JUMPDEST PUSH0 PUSH0 PUSH1 0x40 DUP4 DUP6 SUB SLT ISZERO PUSH2 0x121 JUMPI PUSH2 0x120 PUSH2 0xD4 JUMP JUMPDEST JUMPDEST PUSH0 PUSH2 0x12E DUP6 DUP3 DUP7 ADD PUSH2 0xF7 JUMP JUMPDEST SWAP3 POP POP PUSH1 0x20 PUSH2 0x13F DUP6 DUP3 DUP7 ADD PUSH2 0xF7 JUMP JUMPDEST SWAP2 POP POP SWAP3 POP SWAP3 SWAP1 POP JUMP JUMPDEST PUSH0 DUP2 SWAP1 POP SWAP2 SWAP1 POP JUMP JUMPDEST PUSH0 DUP2 SWAP1 POP SWAP2 SWAP1 POP JUMP JUMPDEST PUSH0 PUSH2 0x175 PUSH2 0x170 PUSH2 0x16B DUP5 PUSH2 0x149 JUMP JUMPDEST PUSH2 0x152 JUMP JUMPDEST PUSH2 0xD8 JUMP JUMPDEST SWAP1 POP SWAP2 SWAP1 POP JUMP JUMPDEST PUSH2 0x185 DUP2 PUSH2 0x15B JUMP JUMPDEST DUP3 MSTORE POP POP JUMP JUMPDEST PUSH0 PUSH1 0x40 DUP3 ADD SWAP1 POP PUSH2 0x19E PUSH0 DUP4 ADD DUP6 PUSH2 0x17C JUMP JUMPDEST PUSH2 0x1AB PUSH1 0x20 DUP4 ADD DUP5 PUSH2 0x17C JUMP JUMPDEST SWAP4 SWAP3 POP POP POP JUMP JUMPDEST PUSH1 0x80 MLOAD PUSH1 0xA0 MLOAD PUSH2 0xA96 PUSH2 0x1EF PUSH0 CODECOPY PUSH0 DUP2 DUP2 PUSH2 0x243 ADD MSTORE DUP2 DUP2 PUSH2 0x4FF ADD MSTORE PUSH2 0x528 ADD MSTORE PUSH0 DUP2 DUP2 PUSH2 0x2B2 ADD MSTORE DUP2 DUP2 PUSH2 0x2DB ADD MSTORE PUSH2 0x4A1 ADD MSTORE PUSH2 0xA96 PUSH0 RETURN INVALID PUSH1 0x80 PUSH1 0x40 MSTORE PUSH1 0x4 CALLDATASIZE LT PUSH2 0x94 JUMPI PUSH0 CALLDATALOAD PUSH1 0xE0 SHR DUP1 PUSH4 0x6BAF38CA GT PUSH2 0x58 JUMPI DUP1 PUSH4 0x6BAF38CA EQ PUSH2 0x14D JUMPI DUP1 PUSH4 0xA9CB0CA0 EQ PUSH2 0x189 JUMPI DUP1 PUSH4 0xC8DDEC1B EQ PUSH2 0x1B3 JUMPI DUP1 PUSH4 0xE8B1298F EQ PUSH2 0x1DD JUMPI DUP1 PUSH4 0xFEE88B61 EQ PUSH2 0x205 JUMPI PUSH2 0x95 JUMP JUMPDEST DUP1 PUSH4 0x15A68416 EQ PUSH2 0x99 JUMPI DUP1 PUSH4 0x3D922F90 EQ PUSH2 0xC3 JUMPI DUP1 PUSH4 0x47572014 EQ PUSH2 0xCD JUMPI DUP1 PUSH4 0x499BBADA EQ PUSH2 0xF7 JUMPI DUP1 PUSH4 0x566FEA9D EQ PUSH2 0x121 JUMPI PUSH2 0x95 JUMP JUMPDEST JUMPDEST PUSH0 PUSH0 REVERT JUMPDEST CALLVALUE DUP1 ISZERO PUSH2 0xA4 JUMPI PUSH0 PUSH0 REVERT JUMPDEST POP PUSH2 0xAD PUSH2 0x241 JUMP JUMPDEST PUSH1 0x40 MLOAD PUSH2 0xBA SWAP2 SWAP1 PUSH2 0x7EA JUMP JUMPDEST PUSH1 0x40 MLOAD DUP1 SWAP2 SUB SWAP1 RETURN JUMPDEST PUSH2 0xCB PUSH2 0x265 JUMP JUMPDEST STOP JUMPDEST CALLVALUE DUP1 ISZERO PUSH2 0xD8 JUMPI PUSH0 PUSH0 REVERT JUMPDEST POP PUSH2 0xE1 PUSH2 0x432 JUMP JUMPDEST PUSH1 0x40 MLOAD PUSH2 0xEE SWAP2 SWAP1 PUSH2 0x7EA JUMP JUMPDEST PUSH1 0x40 MLOAD DUP1 SWAP2 SUB SWAP1 RETURN JUMPDEST CALLVALUE DUP1 ISZERO PUSH2 0x102 JUMPI PUSH0 PUSH0 REVERT JUMPDEST POP PUSH2 0x10B PUSH2 0x438 JUMP JUMPDEST PUSH1 0x40 MLOAD PUSH2 0x118 SWAP2 SWAP1 PUSH2 0x7EA JUMP JUMPDEST PUSH1 0x40 MLOAD DUP1 SWAP2 SUB SWAP1 RETURN JUMPDEST CALLVALUE DUP1 ISZERO PUSH2 0x12C JUMPI PUSH0 PUSH0 REVERT JUMPDEST POP PUSH2 0x135 PUSH2 0x43E JUMP JUMPDEST PUSH1 0x40 MLOAD PUSH2 0x144 SWAP4 SWAP3 SWAP2 SWAP1 PUSH2 0x803 JUMP JUMPDEST PUSH1 0x40 MLOAD DUP1 SWAP2 SUB SWAP1 RETURN JUMPDEST CALLVALUE DUP1 ISZERO PUSH2 0x158 JUMPI PUSH0 PUSH0 REVERT JUMPDEST POP PUSH2 0x173 PUSH1 0x4 DUP1 CALLDATASIZE SUB DUP2 ADD SWAP1 PUSH2 0x16E SWAP2 SWAP1 PUSH2 0x896 JUMP JUMPDEST PUSH2 0x454 JUMP JUMPDEST PUSH1 0x40 MLOAD PUSH2 0x180 SWAP2 SWAP1 PUSH2 0x7EA JUMP JUMPDEST PUSH1 0x40 MLOAD DUP1 SWAP2 SUB SWAP1 RETURN JUMPDEST CALLVALUE DUP1 ISZERO PUSH2 0x194 JUMPI PUSH0 PUSH0 REVERT JUMPDEST POP PUSH2 0x19D PUSH2 0x49A JUMP JUMPDEST PUSH1 0x40 MLOAD PUSH2 0x1AA SWAP2 SWAP1 PUSH2 0x7EA JUMP JUMPDEST PUSH1 0x40 MLOAD DUP1 SWAP2 SUB SWAP1 RETURN JUMPDEST CALLVALUE DUP1 ISZERO PUSH2 0x1BE JUMPI PUSH0 PUSH0 REVERT JUMPDEST POP PUSH2 0x1C7 PUSH2 0x49F JUMP JUMPDEST PUSH1 0x40 MLOAD PUSH2 0x1D4 SWAP2 SWAP1 PUSH2 0x7EA JUMP JUMPDEST PUSH1 0x40 MLOAD DUP1 SWAP2 SUB SWAP1 RETURN JUMPDEST CALLVALUE DUP1 ISZERO PUSH2 0x1E8 JUMPI PUSH0 PUSH0 REVERT JUMPDEST POP PUSH2 0x203 PUSH1 0x4 DUP1 CALLDATASIZE SUB DUP2 ADD SWAP1 PUSH2 0x1FE SWAP2 SWAP1 PUSH2 0x8EB JUMP JUMPDEST PUSH2 0x4C3 JUMP JUMPDEST STOP JUMPDEST CALLVALUE DUP1 ISZERO PUSH2 0x210 JUMPI PUSH0 PUSH0 REVERT JUMPDEST POP PUSH2 0x22B PUSH1 0x4 DUP1 CALLDATASIZE SUB DUP2 ADD SWAP1 PUSH2 0x226 SWAP2 SWAP1 PUSH2 0x896 JUMP JUMPDEST PUSH2 0x70C JUMP JUMPDEST PUSH1 0x40 MLOAD PUSH2 0x238 SWAP2 SWAP1 PUSH2 0x7EA JUMP JUMPDEST PUSH1 0x40 MLOAD DUP1 SWAP2 SUB SWAP1 RETURN JUMPDEST PUSH32 0x0 DUP2 JUMP JUMPDEST CALLVALUE PUSH0 DUP2 SUB PUSH2 0x29F JUMPI PUSH1 0x40 MLOAD PUSH32 0x85EA51AF00000000000000000000000000000000000000000000000000000000 DUP2 MSTORE PUSH1 0x4 ADD PUSH1 0x40 MLOAD DUP1 SWAP2 SUB SWAP1 REVERT JUMPDEST PUSH0 CALLVALUE PUSH1 0x2 SLOAD PUSH2 0x2AE SWAP2 SWAP1 PUSH2 0x943 JUMP JUMPDEST SWAP1 POP PUSH32 0x0 DUP2 GT ISZERO PUSH2 0x337 JUMPI DUP1 PUSH32 0x0 PUSH1 0x40 MLOAD PUSH32 0x868D0F300000000000000000000000000000000000000000000000000000000 DUP2 MSTORE PUSH1 0x4 ADD PUSH2 0x32E SWAP3 SWAP2 SWAP1 PUSH2 0x976 JUMP JUMPDEST PUSH1 0x40 MLOAD DUP1 SWAP2 SUB SWAP1 REVERT JUMPDEST CALLVALUE PUSH1 0x3 PUSH0 CALLER PUSH20 0xFFFFFFFFFFFFFFFFFFFFFFFFFFFFFFFFFFFFFFFF AND PUSH20 0xFFFFFFFFFFFFFFFFFFFFFFFFFFFFFFFFFFFFFFFF AND DUP2 MSTORE PUSH1 0x20 ADD SWAP1 DUP2 MSTORE PUSH1 0x20 ADD PUSH0 KECCAK256 PUSH0 DUP3 DUP3 SLOAD PUSH2 0x383 SWAP2 SWAP1 PUSH2 0x943 JUMP JUMPDEST SWAP3 POP POP DUP2 SWAP1 SSTORE POP DUP1 PUSH1 0x2 DUP2 SWAP1 SSTORE POP PUSH0 PUSH0 DUP2 SLOAD DUP1 SWAP3 SWAP2 SWAP1 PUSH1 0x1 ADD SWAP2 SWAP1 POP SSTORE POP CALLER PUSH20 0xFFFFFFFFFFFFFFFFFFFFFFFFFFFFFFFFFFFFFFFF AND PUSH32 0xEA84AB1B96A4DF052463C82C30614A8F1E466190B2CBA7BF294B6FB8A77B9B20 CALLVALUE PUSH1 0x3 PUSH0 CALLER PUSH20 0xFFFFFFFFFFFFFFFFFFFFFFFFFFFFFFFFFFFFFFFF AND PUSH20 0xFFFFFFFFFFFFFFFFFFFFFFFFFFFFFFFFFFFFFFFF AND DUP2 MSTORE PUSH1 0x20 ADD SWAP1 DUP2 MSTORE PUSH1 0x20 ADD PUSH0 KECCAK256 SLOAD PUSH1 0x40 MLOAD PUSH2 0x426 SWAP3 SWAP2 SWAP1 PUSH2 0x976 JUMP JUMPDEST PUSH1 0x40 MLOAD DUP1 SWAP2 SUB SWAP1 LOG2 POP POP JUMP JUMPDEST PUSH1 0x2 SLOAD DUP2 JUMP JUMPDEST PUSH1 0x1 SLOAD DUP2 JUMP JUMPDEST PUSH0 PUSH0 PUSH0 PUSH1 0x2 SLOAD PUSH0 SLOAD PUSH1 0x1 SLOAD SWAP3 POP SWAP3 POP SWAP3 POP SWAP1 SWAP2 SWAP3 JUMP JUMPDEST PUSH0 PUSH1 0x3 PUSH0 DUP4 PUSH20 0xFFFFFFFFFFFFFFFFFFFFFFFFFFFFFFFFFFFFFFFF AND PUSH20 0xFFFFFFFFFFFFFFFFFFFFFFFFFFFFFFFFFFFFFFFF AND DUP2 MSTORE PUSH1 0x20 ADD SWAP1 DUP2 MSTORE PUSH1 0x20 ADD PUSH0 KECCAK256 SLOAD SWAP1 POP SWAP2 SWAP1 POP JUMP JUMPDEST PUSH0 SLOAD DUP2 JUMP JUMPDEST PUSH32 0x0 DUP2 JUMP JUMPDEST DUP1 PUSH0 DUP2 SUB PUSH2 0x4FD JUMPI PUSH1 0x40 MLOAD PUSH32 0x85EA51AF00000000000000000000000000000000000000000000000000000000 DUP2 MSTORE PUSH1 0x4 ADD PUSH1 0x40 MLOAD DUP1 SWAP2 SUB SWAP1 REVERT JUMPDEST PUSH32 0x0 DUP3 GT ISZERO PUSH2 0x584 JUMPI DUP2 PUSH32 0x0 PUSH1 0x40 MLOAD PUSH32 0xE910694600000000000000000000000000000000000000000000000000000000 DUP2 MSTORE PUSH1 0x4 ADD PUSH2 0x57B SWAP3 SWAP2 SWAP1 PUSH2 0x976 JUMP JUMPDEST PUSH1 0x40 MLOAD DUP1 SWAP2 SUB SWAP1 REVERT JUMPDEST PUSH0 PUSH1 0x3 PUSH0 CALLER PUSH20 0xFFFFFFFFFFFFFFFFFFFFFFFFFFFFFFFFFFFFFFFF AND PUSH20 0xFFFFFFFFFFFFFFFFFFFFFFFFFFFFFFFFFFFFFFFF AND DUP2 MSTORE PUSH1 0x20 ADD SWAP1 DUP2 MSTORE PUSH1 0x20 ADD PUSH0 KECCAK256 SLOAD SWAP1 POP DUP1 DUP4 GT ISZERO PUSH2 0x60C JUMPI DUP3 DUP2 PUSH1 0x40 MLOAD PUSH32 0xED7D0C4000000000000000000000000000000000000000000000000000000000 DUP2 MSTORE PUSH1 0x4 ADD PUSH2 0x603 SWAP3 SWAP2 SWAP1 PUSH2 0x976 JUMP JUMPDEST PUSH1 0x40 MLOAD DUP1 SWAP2 SUB SWAP1 REVERT JUMPDEST DUP3 DUP2 SUB PUSH1 0x3 PUSH0 CALLER PUSH20 0xFFFFFFFFFFFFFFFFFFFFFFFFFFFFFFFFFFFFFFFF AND PUSH20 0xFFFFFFFFFFFFFFFFFFFFFFFFFFFFFFFFFFFFFFFF AND DUP2 MSTORE PUSH1 0x20 ADD SWAP1 DUP2 MSTORE PUSH1 0x20 ADD PUSH0 KECCAK256 DUP2 SWAP1 SSTORE POP DUP3 PUSH1 0x2 PUSH0 DUP3 DUP3 SLOAD SUB SWAP3 POP POP DUP2 SWAP1 SSTORE POP PUSH1 0x1 PUSH0 DUP2 SLOAD DUP1 SWAP3 SWAP2 SWAP1 PUSH1 0x1 ADD SWAP2 SWAP1 POP SSTORE POP PUSH2 0x67A CALLER DUP5 PUSH2 0x721 JUMP JUMPDEST CALLER PUSH20 0xFFFFFFFFFFFFFFFFFFFFFFFFFFFFFFFFFFFFFFFF AND PUSH32 0xEA4739A01BB01FE29FA71E248C4C05B41FA8DC1A1C62B9AFE577470D1D2D2C27 DUP5 PUSH1 0x3 PUSH0 CALLER PUSH20 0xFFFFFFFFFFFFFFFFFFFFFFFFFFFFFFFFFFFFFFFF AND PUSH20 0xFFFFFFFFFFFFFFFFFFFFFFFFFFFFFFFFFFFFFFFF AND DUP2 MSTORE PUSH1 0x20 ADD SWAP1 DUP2 MSTORE PUSH1 0x20 ADD PUSH0 KECCAK256 SLOAD PUSH1 0x40 MLOAD PUSH2 0x6FF SWAP3 SWAP2 SWAP1 PUSH2 0x976 JUMP JUMPDEST PUSH1 0x40 MLOAD DUP1 SWAP2 SUB SWAP1 LOG2 POP POP POP JUMP JUMPDEST PUSH1 0x3 PUSH1 0x20 MSTORE DUP1 PUSH0 MSTORE PUSH1 0x40 PUSH0 KECCAK256 PUSH0 SWAP2 POP SWAP1 POP SLOAD DUP2 JUMP JUMPDEST PUSH0 DUP3 PUSH20 0xFFFFFFFFFFFFFFFFFFFFFFFFFFFFFFFFFFFFFFFF AND DUP3 PUSH1 0x40 MLOAD PUSH2 0x746 SWAP1 PUSH2 0x9CA JUMP JUMPDEST PUSH0 PUSH1 0x40 MLOAD DUP1 DUP4 SUB DUP2 DUP6 DUP8 GAS CALL SWAP3 POP POP POP RETURNDATASIZE DUP1 PUSH0 DUP2 EQ PUSH2 0x780 JUMPI PUSH1 0x40 MLOAD SWAP2 POP PUSH1 0x1F NOT PUSH1 0x3F RETURNDATASIZE ADD AND DUP3 ADD PUSH1 0x40 MSTORE RETURNDATASIZE DUP3 MSTORE RETURNDATASIZE PUSH0 PUSH1 0x20 DUP5 ADD RETURNDATACOPY PUSH2 0x785 JUMP JUMPDEST PUSH1 0x60 SWAP2 POP JUMPDEST POP POP SWAP1 POP DUP1 PUSH2 0x7CD JUMPI DUP3 DUP3 PUSH1 0x40 MLOAD PUSH32 0x87F639500000000000000000000000000000000000000000000000000000000 DUP2 MSTORE PUSH1 0x4 ADD PUSH2 0x7C4 SWAP3 SWAP2 SWAP1 PUSH2 0xA39 JUMP JUMPDEST PUSH1 0x40 MLOAD DUP1 SWAP2 SUB SWAP1 REVERT JUMPDEST POP POP POP JUMP JUMPDEST PUSH0 DUP2 SWAP1 POP SWAP2 SWAP1 POP JUMP JUMPDEST PUSH2 0x7E4 DUP2 PUSH2 0x7D2 JUMP JUMPDEST DUP3 MSTORE POP POP JUMP JUMPDEST PUSH0 PUSH1 0x20 DUP3 ADD SWAP1 POP PUSH2 0x7FD PUSH0 DUP4 ADD DUP5 PUSH2 0x7DB JUMP JUMPDEST SWAP3 SWAP2 POP POP JUMP JUMPDEST PUSH0 PUSH1 0x60 DUP3 ADD SWAP1 POP PUSH2 0x816 PUSH0 DUP4 ADD DUP7 PUSH2 0x7DB JUMP JUMPDEST PUSH2 0x823 PUSH1 0x20 DUP4 ADD DUP6 PUSH2 0x7DB JUMP JUMPDEST PUSH2 0x830 PUSH1 0x40 DUP4 ADD DUP5 PUSH2 0x7DB JUMP JUMPDEST SWAP5 SWAP4 POP POP POP POP JUMP JUMPDEST PUSH0 PUSH0 REVERT JUMPDEST PUSH0 PUSH20 0xFFFFFFFFFFFFFFFFFFFFFFFFFFFFFFFFFFFFFFFF DUP3 AND SWAP1 POP SWAP2 SWAP1 POP JUMP JUMPDEST PUSH0 PUSH2 0x865 DUP3 PUSH2 0x83C JUMP JUMPDEST SWAP1 POP SWAP2 SWAP1 POP JUMP JUMPDEST PUSH2 0x875 DUP2 PUSH2 0x85B JUMP JUMPDEST DUP2 EQ PUSH2 0x87F JUMPI PUSH0 PUSH0 REVERT JUMPDEST POP JUMP JUMPDEST PUSH0 DUP2 CALLDATALOAD SWAP1 POP PUSH2 0x890 DUP2 PUSH2 0x86C JUMP JUMPDEST SWAP3 SWAP2 POP POP JUMP JUMPDEST PUSH0 PUSH1 0x20 DUP3 DUP5 SUB SLT ISZERO PUSH2 0x8AB JUMPI PUSH2 0x8AA PUSH2 0x838 JUMP JUMPDEST JUMPDEST PUSH0 PUSH2 0x8B8 DUP5 DUP3 DUP6 ADD PUSH2 0x882 JUMP JUMPDEST SWAP2 POP POP SWAP3 SWAP2 POP POP JUMP JUMPDEST PUSH2 0x8CA DUP2 PUSH2 0x7D2 JUMP JUMPDEST DUP2 EQ PUSH2 0x8D4 JUMPI PUSH0 PUSH0 REVERT JUMPDEST POP JUMP JUMPDEST PUSH0 DUP2 CALLDATALOAD SWAP1 POP PUSH2 0x8E5 DUP2 PUSH2 0x8C1 JUMP JUMPDEST SWAP3 SWAP2 POP POP JUMP JUMPDEST PUSH0 PUSH1 0x20 DUP3 DUP5 SUB SLT ISZERO PUSH2 0x900 JUMPI PUSH2 0x8FF PUSH2 0x838 JUMP JUMPDEST JUMPDEST PUSH0 PUSH2 0x90D DUP5 DUP3 DUP6 ADD PUSH2 0x8D7 JUMP JUMPDEST SWAP2 POP POP SWAP3 SWAP2 POP POP JUMP JUMPDEST PUSH32 0x4E487B7100000000000000000000000000000000000000000000000000000000 PUSH0 MSTORE PUSH1 0x11 PUSH1 0x4 MSTORE PUSH1 0x24 PUSH0 REVERT JUMPDEST PUSH0 PUSH2 0x94D DUP3 PUSH2 0x7D2 JUMP JUMPDEST SWAP2 POP PUSH2 0x958 DUP4 PUSH2 0x7D2 JUMP JUMPDEST SWAP3 POP DUP3 DUP3 ADD SWAP1 POP DUP1 DUP3 GT ISZERO PUSH2 0x970 JUMPI PUSH2 0x96F PUSH2 0x916 JUMP JUMPDEST JUMPDEST SWAP3 SWAP2 POP POP JUMP JUMPDEST PUSH0 PUSH1 0x40 DUP3 ADD SWAP1 POP PUSH2 0x989 PUSH0 DUP4 ADD DUP6 PUSH2 0x7DB JUMP JUMPDEST PUSH2 0x996 PUSH1 0x20 DUP4 ADD DUP5 PUSH2 0x7DB JUMP JUMPDEST SWAP4 SWAP3 POP POP POP JUMP JUMPDEST PUSH0 DUP2 SWAP1 POP SWAP3 SWAP2 POP POP JUMP JUMPDEST POP JUMP JUMPDEST PUSH0 PUSH2 0x9B5 PUSH0 DUP4 PUSH2 0x99D JUMP JUMPDEST SWAP2 POP PUSH2 0x9C0 DUP3 PUSH2 0x9A7 JUMP JUMPDEST PUSH0 DUP3 ADD SWAP1 POP SWAP2 SWAP1 POP JUMP JUMPDEST PUSH0 PUSH2 0x9D4 DUP3 PUSH2 0x9AA JUMP JUMPDEST SWAP2 POP DUP2 SWAP1 POP SWAP2 SWAP1 POP JUMP JUMPDEST PUSH0 DUP2 SWAP1 POP SWAP2 SWAP1 POP JUMP JUMPDEST PUSH0 PUSH2 0xA01 PUSH2 0x9FC PUSH2 0x9F7 DUP5 PUSH2 0x83C JUMP JUMPDEST PUSH2 0x9DE JUMP JUMPDEST PUSH2 0x83C JUMP JUMPDEST SWAP1 POP SWAP2 SWAP1 POP JUMP JUMPDEST PUSH0 PUSH2 0xA12 DUP3 PUSH2 0x9E7 JUMP JUMPDEST SWAP1 POP SWAP2 SWAP1 POP JUMP JUMPDEST PUSH0 PUSH2 0xA23 DUP3 PUSH2 0xA08 JUMP JUMPDEST SWAP1 POP SWAP2 SWAP1 POP JUMP JUMPDEST PUSH2 0xA33 DUP2 PUSH2 0xA19 JUMP JUMPDEST DUP3 MSTORE POP POP JUMP JUMPDEST PUSH0 PUSH1 0x40 DUP3 ADD SWAP1 POP PUSH2 0xA4C PUSH0 DUP4 ADD DUP6 PUSH2 0xA2A JUMP JUMPDEST PUSH2 0xA59 PUSH1 0x20 DUP4 ADD DUP5 PUSH2 0x7DB JUMP JUMPDEST SWAP4 SWAP3 POP POP POP JUMP INVALID LOG2 PUSH5 0x6970667358 0x22 SLT KECCAK256 0xC8 0xBA DUP15 SWAP3 0xEF DUP1 MLOAD EOFCREATE 0x71 0x4C ADD DIV 0x1E SDIV 0xD REVERT 0xAE DUP6 0x21 ORIGIN PUSH11 0x86795DFD423C6184760A20 PUSH5 0x736F6C6343 STOP ADDMOD 0x1E STOP CALLER "
		},
		"gasEstimates": {
			"creation": {
				"codeDepositCost": "542000",
				"executionCost": "infinite",
				"totalCost": "infinite"
			},
			"external": {
				"": "199",
				"boveda(address)": "2890",
				"conteoDepositos()": "2446",
				"conteoRetiros()": "2492",
				"depositar()": "infinite",
				"estadisticas()": "infinite",
				"limiteBanco()": "infinite",
				"retirar(uint256)": "infinite",
				"saldoBancoTotal()": "2470",
				"saldoDe(address)": "2829",
				"topeRetiroPorTx()": "infinite"
			},
			"internal": {
				"_transferenciaNativaSegura(address payable,uint256)": "infinite"
			}
		},
		"methodIdentifiers": {
			"boveda(address)": "fee88b61",
			"conteoDepositos()": "a9cb0ca0",
			"conteoRetiros()": "499bbada",
			"depositar()": "3d922f90",
			"estadisticas()": "566fea9d",
			"limiteBanco()": "c8ddec1b",
			"retirar(uint256)": "e8b1298f",
			"saldoBancoTotal()": "47572014",
			"saldoDe(address)": "6baf38ca",
			"topeRetiroPorTx()": "15a68416"
		}
	},
	"abi": [
		{
			"inputs": [
				{
					"internalType": "uint256",
					"name": "_limiteBanco",
					"type": "uint256"
				},
				{
					"internalType": "uint256",
					"name": "_topeRetiroPorTx",
					"type": "uint256"
				}
			],
			"stateMutability": "nonpayable",
			"type": "constructor"
		},
		{
			"inputs": [
				{
					"internalType": "uint256",
					"name": "solicitado",
					"type": "uint256"
				},
				{
					"internalType": "uint256",
					"name": "disponible",
					"type": "uint256"
				}
			],
			"name": "BalanceInsuficiente",
			"type": "error"
		},
		{
			"inputs": [],
			"name": "MontoCero",
			"type": "error"
		},
		{
			"inputs": [
				{
					"internalType": "uint256",
					"name": "solicitado",
					"type": "uint256"
				},
				{
					"internalType": "uint256",
					"name": "tope",
					"type": "uint256"
				}
			],
			"name": "RetiroSobreTope",
			"type": "error"
		},
		{
			"inputs": [
				{
					"internalType": "uint256",
					"name": "totalIntentado",
					"type": "uint256"
				},
				{
					"internalType": "uint256",
					"name": "limite",
					"type": "uint256"
				}
			],
			"name": "TopeBancoExcedido",
			"type": "error"
		},
		{
			"inputs": [
				{
					"internalType": "address",
					"name": "a",
					"type": "address"
				},
				{
					"internalType": "uint256",
					"name": "monto",
					"type": "uint256"
				}
			],
			"name": "TransferenciaNativaFallida",
			"type": "error"
		},
		{
			"anonymous": false,
			"inputs": [
				{
					"indexed": true,
					"internalType": "address",
					"name": "usuario",
					"type": "address"
				},
				{
					"indexed": false,
					"internalType": "uint256",
					"name": "monto",
					"type": "uint256"
				},
				{
					"indexed": false,
					"internalType": "uint256",
					"name": "balanceUsuario",
					"type": "uint256"
				}
			],
			"name": "Depositado",
			"type": "event"
		},
		{
			"anonymous": false,
			"inputs": [
				{
					"indexed": true,
					"internalType": "address",
					"name": "usuario",
					"type": "address"
				},
				{
					"indexed": false,
					"internalType": "uint256",
					"name": "monto",
					"type": "uint256"
				},
				{
					"indexed": false,
					"internalType": "uint256",
					"name": "balanceUsuario",
					"type": "uint256"
				}
			],
			"name": "Retirado",
			"type": "event"
		},
		{
			"stateMutability": "payable",
			"type": "fallback"
		},
		{
			"inputs": [
				{
					"internalType": "address",
					"name": "",
					"type": "address"
				}
			],
			"name": "boveda",
			"outputs": [
				{
					"internalType": "uint256",
					"name": "",
					"type": "uint256"
				}
			],
			"stateMutability": "view",
			"type": "function"
		},
		{
			"inputs": [],
			"name": "conteoDepositos",
			"outputs": [
				{
					"internalType": "uint256",
					"name": "",
					"type": "uint256"
				}
			],
			"stateMutability": "view",
			"type": "function"
		},
		{
			"inputs": [],
			"name": "conteoRetiros",
			"outputs": [
				{
					"internalType": "uint256",
					"name": "",
					"type": "uint256"
				}
			],
			"stateMutability": "view",
			"type": "function"
		},
		{
			"inputs": [],
			"name": "depositar",
			"outputs": [],
			"stateMutability": "payable",
			"type": "function"
		},
		{
			"inputs": [],
			"name": "estadisticas",
			"outputs": [
				{
					"internalType": "uint256",
					"name": "_saldoBancoTotal",
					"type": "uint256"
				},
				{
					"internalType": "uint256",
					"name": "_conteoDepositos",
					"type": "uint256"
				},
				{
					"internalType": "uint256",
					"name": "_conteoRetiros",
					"type": "uint256"
				}
			],
			"stateMutability": "view",
			"type": "function"
		},
		{
			"inputs": [],
			"name": "limiteBanco",
			"outputs": [
				{
					"internalType": "uint256",
					"name": "",
					"type": "uint256"
				}
			],
			"stateMutability": "view",
			"type": "function"
		},
		{
			"inputs": [
				{
					"internalType": "uint256",
					"name": "monto",
					"type": "uint256"
				}
			],
			"name": "retirar",
			"outputs": [],
			"stateMutability": "nonpayable",
			"type": "function"
		},
		{
			"inputs": [],
			"name": "saldoBancoTotal",
			"outputs": [
				{
					"internalType": "uint256",
					"name": "",
					"type": "uint256"
				}
			],
			"stateMutability": "view",
			"type": "function"
		},
		{
			"inputs": [
				{
					"internalType": "address",
					"name": "usuario",
					"type": "address"
				}
			],
			"name": "saldoDe",
			"outputs": [
				{
					"internalType": "uint256",
					"name": "",
					"type": "uint256"
				}
			],
			"stateMutability": "view",
			"type": "function"
		},
		{
			"inputs": [],
			"name": "topeRetiroPorTx",
			"outputs": [
				{
					"internalType": "uint256",
					"name": "",
					"type": "uint256"
				}
			],
			"stateMutability": "view",
			"type": "function"
		},
		{
			"stateMutability": "payable",
			"type": "receive"
		}
	]
}